{"contracts/TimeLockWallet.sol":{"TimeLockWallet":{"abi":[{"anonymous":false,"inputs":[{"indexed":true,"internalType":"uint256","name":"lockId","type":"uint256"},{"indexed":false,"internalType":"uint256","name":"feeAmount","type":"uint256"}],"name":"FeeCollected","type":"event"},{"anonymous":false,"inputs":[{"indexed":true,"internalType":"uint256","name":"lockId","type":"uint256"},{"indexed":true,"internalType":"address","name":"sender","type":"address"},{"indexed":true,"internalType":"address","name":"recipient","type":"address"},{"indexed":false,"internalType":"uint256","name":"amount","type":"uint256"},{"indexed":false,"internalType":"uint256","name":"releaseTime","type":"uint256"},{"indexed":false,"internalType":"bytes32","name":"blockHash","type":"bytes32"},{"indexed":false,"internalType":"uint256","name":"blockNumber","type":"uint256"},{"indexed":false,"internalType":"uint256","name":"timestamp","type":"uint256"}],"name":"FundsLocked","type":"event"},{"anonymous":false,"inputs":[{"indexed":true,"internalType":"uint256","name":"lockId","type":"uint256"},{"indexed":true,"internalType":"address","name":"recipient","type":"address"},{"indexed":false,"internalType":"uint256","name":"amount","type":"uint256"},{"indexed":false,"internalType":"uint256","name":"fee","type":"uint256"}],"name":"FundsWithdrawn","type":"event"},{"inputs":[],"name":"BASIS_POINTS","outputs":[{"internalType":"uint256","name":"","type":"uint256"}],"stateMutability":"view","type":"function"},{"inputs":[],"name":"FEE_BASIS_POINTS","outputs":[{"internalType":"uint256","name":"","type":"uint256"}],"stateMutability":"view","type":"function"},{"inputs":[],"name":"FEE_COLLECTOR","outputs":[{"internalType":"address","name":"","type":"address"}],"stateMutability":"view","type":"function"},{"inputs":[{"internalType":"uint256","name":"amount","type":"uint256"}],"name":"calculateFee","outputs":[{"internalType":"uint256","name":"","type":"uint256"}],"stateMutability":"pure","type":"function"},{"inputs":[],"name":"getBalance","outputs":[{"internalType":"uint256","name":"","type":"uint256"}],"stateMutability":"view","type":"function"},{"inputs":[{"internalType":"uint256","name":"lockId","type":"uint256"}],"name":"getLockDetails","outputs":[{"internalType":"uint256","name":"amount","type":"uint256"},{"internalType":"uint256","name":"releaseTime","type":"uint256"},{"internalType":"address","name":"recipient","type":"address"},{"internalType":"bool","name":"withdrawn","type":"bool"},{"internalType":"bytes32","name":"blockHash","type":"bytes32"},{"internalType":"uint256","name":"blockNumber","type":"uint256"},{"internalType":"uint256","name":"timestamp","type":"uint256"},{"internalType":"address","name":"sender","type":"address"}],"stateMutability":"view","type":"function"},{"inputs":[],"name":"getLocksCount","outputs":[{"internalType":"uint256","name":"","type":"uint256"}],"stateMutability":"view","type":"function"},{"inputs":[{"internalType":"address","name":"recipient","type":"address"},{"internalType":"uint256","name":"releaseTime","type":"uint256"}],"name":"lockFunds","outputs":[{"internalType":"uint256","name":"lockId","type":"uint256"}],"stateMutability":"payable","type":"function"},{"inputs":[{"internalType":"uint256","name":"","type":"uint256"}],"name":"locks","outputs":[{"internalType":"uint256","name":"amount","type":"uint256"},{"internalType":"uint256","name":"releaseTime","type":"uint256"},{"internalType":"address","name":"recipient","type":"address"},{"internalType":"bool","name":"withdrawn","type":"bool"},{"internalType":"bytes32","name":"blockHash","type":"bytes32"},{"internalType":"uint256","name":"blockNumber","type":"uint256"},{"internalType":"uint256","name":"timestamp","type":"uint256"},{"internalType":"address","name":"sender","type":"address"}],"stateMutability":"view","type":"function"},{"inputs":[],"name":"nextLockId","outputs":[{"internalType":"uint256","name":"","type":"uint256"}],"stateMutability":"view","type":"function"},{"inputs":[{"internalType":"uint256","name":"lockId","type":"uint256"}],"name":"withdraw","outputs":[],"stateMutability":"nonpayable","type":"function"}],"evm":{"bytecode":{"linkReferences":{},"object":"608060405234801561001057600080fd5b50611501806100206000396000f3fe60806040526004361061009c5760003560e01c80637f660b01116100645780637f660b011461019457806399a5d747146101bf578063a525ad3c146101fc578063de3794c414610227578063e1f1c4a714610252578063f4dadc611461027d5761009c565b806312065fe0146100a157806312e382b4146100cc5780632e1a7d4d146100fc5780635b15bfd9146101255780636518a0b314610169575b600080fd5b3480156100ad57600080fd5b506100b66102c1565b6040516100c39190610be2565b60405180910390f35b6100e660048036038101906100e19190610c8c565b6102c9565b6040516100f39190610be2565b60405180910390f35b34801561010857600080fd5b50610123600480360381019061011e9190610ccc565b6105ab565b005b34801561013157600080fd5b5061014c60048036038101906101479190610ccc565b6109e7565b604051610160989796959493929190610d3c565b60405180910390f35b34801561017557600080fd5b5061017e610ade565b60405161018b9190610be2565b60405180910390f35b3480156101a057600080fd5b506101a9610ae4565b6040516101b69190610dba565b60405180910390f35b3480156101cb57600080fd5b506101e660048036038101906101e19190610ccc565b610afc565b6040516101f39190610be2565b60405180910390f35b34801561020857600080fd5b50610211610b1f565b60405161021e9190610be2565b60405180910390f35b34801561023357600080fd5b5061023c610b24565b6040516102499190610be2565b60405180910390f35b34801561025e57600080fd5b50610267610b2e565b6040516102749190610be2565b60405180910390f35b34801561028957600080fd5b506102a4600480360381019061029f9190610ccc565b610b34565b6040516102b8989796959493929190610d3c565b60405180910390f35b600047905090565b60008073ffffffffffffffffffffffffffffffffffffffff168373ffffffffffffffffffffffffffffffffffffffff1603610339576040517f08c379a000000000000000000000000000000000000000000000000000000000815260040161033090610e58565b60405180910390fd5b6000341161037c576040517f08c379a000000000000000000000000000000000000000000000000000000000815260040161037390610eea565b60405180910390fd5b4282116103be576040517f08c379a00000000000000000000000000000000000000000000000000000000081526004016103b590610f7c565b60405180910390fd5b600160008154809291906103d190610fcb565b9190505590506040518061010001604052803481526020018381526020018473ffffffffffffffffffffffffffffffffffffffff168152602001600015158152602001434081526020014381526020014281526020013373ffffffffffffffffffffffffffffffffffffffff16815250600080838152602001908152602001600020600082015181600001556020820151816001015560408201518160020160006101000a81548173ffffffffffffffffffffffffffffffffffffffff021916908373ffffffffffffffffffffffffffffffffffffffff16021790555060608201518160020160146101000a81548160ff0219169083151502179055506080820151816003015560a0820151816004015560c0820151816005015560e08201518160060160006101000a81548173ffffffffffffffffffffffffffffffffffffffff021916908373ffffffffffffffffffffffffffffffffffffffff1602179055509050508273ffffffffffffffffffffffffffffffffffffffff163373ffffffffffffffffffffffffffffffffffffffff16827f1729ac8ad7899abdf9e72c1eca99a5b9c5a1f17d3219936fd1b3b38a287bd36934864340434260405161059d959493929190611013565b60405180910390a492915050565b8060015481106105f0576040517f08c379a00000000000000000000000000000000000000000000000000000000081526004016105e7906110b2565b60405180910390fd5b60008082815260200190815260200160002060020160149054906101000a900460ff1615610653576040517f08c379a000000000000000000000000000000000000000000000000000000000815260040161064a90611144565b60405180910390fd5b600080600084815260200190815260200160002090508060020160009054906101000a900473ffffffffffffffffffffffffffffffffffffffff1673ffffffffffffffffffffffffffffffffffffffff163373ffffffffffffffffffffffffffffffffffffffff16146106fb576040517f08c379a00000000000000000000000000000000000000000000000000000000081526004016106f2906111d6565b60405180910390fd5b8060010154421015610742576040517f08c379a000000000000000000000000000000000000000000000000000000000815260040161073990611268565b60405180910390fd5b60018160020160146101000a81548160ff021916908315150217905550600081600001549050600061271060648361077a9190611288565b61078491906112f9565b905060008183610794919061132a565b90506000821115610899576000730788acb08de2f55b7f2086d1f45478a926921e2973ffffffffffffffffffffffffffffffffffffffff16836040516107d99061138f565b60006040518083038185875af1925050503d8060008114610816576040519150601f19603f3d011682016040523d82523d6000602084013e61081b565b606091505b505090508061085f576040517f08c379a000000000000000000000000000000000000000000000000000000000815260040161085690611416565b60405180910390fd5b867faf7c505ee772ec188af7067e1f73db08ab028e3d564273442b907742b9c41fa08460405161088f9190610be2565b60405180910390a2505b60008460020160009054906101000a900473ffffffffffffffffffffffffffffffffffffffff1673ffffffffffffffffffffffffffffffffffffffff16826040516108e39061138f565b60006040518083038185875af1925050503d8060008114610920576040519150601f19603f3d011682016040523d82523d6000602084013e610925565b606091505b5050905080610969576040517f08c379a000000000000000000000000000000000000000000000000000000000815260040161096090611482565b60405180910390fd5b8460020160009054906101000a900473ffffffffffffffffffffffffffffffffffffffff1673ffffffffffffffffffffffffffffffffffffffff16877f3dbb1a26f29aef1264c12ca1285deb60cca5666d8b17100c7ea1602c0a4014f684866040516109d69291906114a2565b60405180910390a350505050505050565b6000806000806000806000806001548910610a37576040517f08c379a0000000000000000000000000000000000000000000000000000000008152600401610a2e906110b2565b60405180910390fd5b60008060008b81526020019081526020016000209050806000015481600101548260020160009054906101000a900473ffffffffffffffffffffffffffffffffffffffff168360020160149054906101000a900460ff168460030154856004015486600501548760060160009054906101000a900473ffffffffffffffffffffffffffffffffffffffff169850985098509850985098509850985050919395975091939597565b60015481565b730788acb08de2f55b7f2086d1f45478a926921e2981565b6000612710606483610b0e9190611288565b610b1891906112f9565b9050919050565b606481565b6000600154905090565b61271081565b60006020528060005260406000206000915090508060000154908060010154908060020160009054906101000a900473ffffffffffffffffffffffffffffffffffffffff16908060020160149054906101000a900460ff16908060030154908060040154908060050154908060060160009054906101000a900473ffffffffffffffffffffffffffffffffffffffff16905088565b6000819050919050565b610bdc81610bc9565b82525050565b6000602082019050610bf76000830184610bd3565b92915050565b600080fd5b600073ffffffffffffffffffffffffffffffffffffffff82169050919050565b6000610c2d82610c02565b9050919050565b610c3d81610c22565b8114610c4857600080fd5b50565b600081359050610c5a81610c34565b92915050565b610c6981610bc9565b8114610c7457600080fd5b50565b600081359050610c8681610c60565b92915050565b60008060408385031215610ca357610ca2610bfd565b5b6000610cb185828601610c4b565b9250506020610cc285828601610c77565b9150509250929050565b600060208284031215610ce257610ce1610bfd565b5b6000610cf084828501610c77565b91505092915050565b610d0281610c22565b82525050565b60008115159050919050565b610d1d81610d08565b82525050565b6000819050919050565b610d3681610d23565b82525050565b600061010082019050610d52600083018b610bd3565b610d5f602083018a610bd3565b610d6c6040830189610cf9565b610d796060830188610d14565b610d866080830187610d2d565b610d9360a0830186610bd3565b610da060c0830185610bd3565b610dad60e0830184610cf9565b9998505050505050505050565b6000602082019050610dcf6000830184610cf9565b92915050565b600082825260208201905092915050565b7f54696d654c6f636b57616c6c65743a20726563697069656e74206973207a657260008201527f6f20616464726573730000000000000000000000000000000000000000000000602082015250565b6000610e42602983610dd5565b9150610e4d82610de6565b604082019050919050565b60006020820190508181036000830152610e7181610e35565b9050919050565b7f54696d654c6f636b57616c6c65743a20616d6f756e74206d757374206265206760008201527f726561746572207468616e207a65726f00000000000000000000000000000000602082015250565b6000610ed4603083610dd5565b9150610edf82610e78565b604082019050919050565b60006020820190508181036000830152610f0381610ec7565b9050919050565b7f54696d654c6f636b57616c6c65743a2072656c656173652074696d65206d757360008201527f7420626520696e20667574757265000000000000000000000000000000000000602082015250565b6000610f66602e83610dd5565b9150610f7182610f0a565b604082019050919050565b60006020820190508181036000830152610f9581610f59565b9050919050565b7f4e487b7100000000000000000000000000000000000000000000000000000000600052601160045260246000fd5b6000610fd682610bc9565b91507fffffffffffffffffffffffffffffffffffffffffffffffffffffffffffffffff820361100857611007610f9c565b5b600182019050919050565b600060a0820190506110286000830188610bd3565b6110356020830187610bd3565b6110426040830186610d2d565b61104f6060830185610bd3565b61105c6080830184610bd3565b9695505050505050565b7f54696d654c6f636b57616c6c65743a20696e76616c6964206c6f636b20696400600082015250565b600061109c601f83610dd5565b91506110a782611066565b602082019050919050565b600060208201905081810360008301526110cb8161108f565b9050919050565b7f54696d654c6f636b57616c6c65743a2066756e647320616c726561647920776960008201527f7468647261776e00000000000000000000000000000000000000000000000000602082015250565b600061112e602783610dd5565b9150611139826110d2565b604082019050919050565b6000602082019050818103600083015261115d81611121565b9050919050565b7f54696d654c6f636b57616c6c65743a2063616c6c6572206973206e6f7420746860008201527f6520726563697069656e74000000000000000000000000000000000000000000602082015250565b60006111c0602b83610dd5565b91506111cb82611164565b604082019050919050565b600060208201905081810360008301526111ef816111b3565b9050919050565b7f54696d654c6f636b57616c6c65743a2072656c656173652074696d65206e6f7460008201527f2072656163686564000000000000000000000000000000000000000000000000602082015250565b6000611252602883610dd5565b915061125d826111f6565b604082019050919050565b6000602082019050818103600083015261128181611245565b9050919050565b600061129382610bc9565b915061129e83610bc9565b92508282026112ac81610bc9565b915082820484148315176112c3576112c2610f9c565b5b5092915050565b7f4e487b7100000000000000000000000000000000000000000000000000000000600052601260045260246000fd5b600061130482610bc9565b915061130f83610bc9565b92508261131f5761131e6112ca565b5b828204905092915050565b600061133582610bc9565b915061134083610bc9565b925082820390508181111561135857611357610f9c565b5b92915050565b600081905092915050565b50565b600061137960008361135e565b915061138482611369565b600082019050919050565b600061139a8261136c565b9150819050919050565b7f54696d654c6f636b57616c6c65743a20666565207472616e736665722066616960008201527f6c65640000000000000000000000000000000000000000000000000000000000602082015250565b6000611400602383610dd5565b915061140b826113a4565b604082019050919050565b6000602082019050818103600083015261142f816113f3565b9050919050565b7f54696d654c6f636b57616c6c65743a207472616e73666572206661696c656400600082015250565b600061146c601f83610dd5565b915061147782611436565b602082019050919050565b6000602082019050818103600083015261149b8161145f565b9050919050565b60006040820190506114b76000830185610bd3565b6114c46020830184610bd3565b939250505056fea26469706673582212204c8b537771c6c9136a5dc1211b5c310f803482c80a9b48ed6fc613a2a43d91aa64736f6c63430008140033","opcodes":"PUSH1 0x80 PUSH1 0x40 MSTORE CALLVALUE DUP1 ISZERO PUSH2 0x10 JUMPI PUSH1 0x0 DUP1 REVERT JUMPDEST POP PUSH2 0x1501 DUP1 PUSH2 0x20 PUSH1 0x0 CODECOPY PUSH1 0x0 RETURN INVALID PUSH1 0x80 PUSH1 0x40 MSTORE PUSH1 0x4 CALLDATASIZE LT PUSH2 0x9C JUMPI PUSH1 0x0 CALLDATALOAD PUSH1 0xE0 SHR DUP1 PUSH4 0x7F660B01 GT PUSH2 0x64 JUMPI DUP1 PUSH4 0x7F660B01 EQ PUSH2 0x194 JUMPI DUP1 PUSH4 0x99A5D747 EQ PUSH2 0x1BF JUMPI DUP1 PUSH4 0xA525AD3C EQ PUSH2 0x1FC JUMPI DUP1 PUSH4 0xDE3794C4 EQ PUSH2 0x227 JUMPI DUP1 PUSH4 0xE1F1C4A7 EQ PUSH2 0x252 JUMPI DUP1 PUSH4 0xF4DADC61 EQ PUSH2 0x27D JUMPI PUSH2 0x9C JUMP JUMPDEST DUP1 PUSH4 0x12065FE0 EQ PUSH2 0xA1 JUMPI DUP1 PUSH4 0x12E382B4 EQ PUSH2 0xCC JUMPI DUP1 PUSH4 0x2E1A7D4D EQ PUSH2 0xFC JUMPI DUP1 PUSH4 0x5B15BFD9 EQ PUSH2 0x125 JUMPI DUP1 PUSH4 0x6518A0B3 EQ PUSH2 0x169 JUMPI JUMPDEST PUSH1 0x0 DUP1 REVERT JUMPDEST CALLVALUE DUP1 ISZERO PUSH2 0xAD JUMPI PUSH1 0x0 DUP1 REVERT JUMPDEST POP PUSH2 0xB6 PUSH2 0x2C1 JUMP JUMPDEST PUSH1 0x40 MLOAD PUSH2 0xC3 SWAP2 SWAP1 PUSH2 0xBE2 JUMP JUMPDEST PUSH1 0x40 MLOAD DUP1 SWAP2 SUB SWAP1 RETURN JUMPDEST PUSH2 0xE6 PUSH1 0x4 DUP1 CALLDATASIZE SUB DUP2 ADD SWAP1 PUSH2 0xE1 SWAP2 SWAP1 PUSH2 0xC8C JUMP JUMPDEST PUSH2 0x2C9 JUMP JUMPDEST PUSH1 0x40 MLOAD PUSH2 0xF3 SWAP2 SWAP1 PUSH2 0xBE2 JUMP JUMPDEST PUSH1 0x40 MLOAD DUP1 SWAP2 SUB SWAP1 RETURN JUMPDEST CALLVALUE DUP1 ISZERO PUSH2 0x108 JUMPI PUSH1 0x0 DUP1 REVERT JUMPDEST POP PUSH2 0x123 PUSH1 0x4 DUP1 CALLDATASIZE SUB DUP2 ADD SWAP1 PUSH2 0x11E SWAP2 SWAP1 PUSH2 0xCCC JUMP JUMPDEST PUSH2 0x5AB JUMP JUMPDEST STOP JUMPDEST CALLVALUE DUP1 ISZERO PUSH2 0x131 JUMPI PUSH1 0x0 DUP1 REVERT JUMPDEST POP PUSH2 0x14C PUSH1 0x4 DUP1 CALLDATASIZE SUB DUP2 ADD SWAP1 PUSH2 0x147 SWAP2 SWAP1 PUSH2 0xCCC JUMP JUMPDEST PUSH2 0x9E7 JUMP JUMPDEST PUSH1 0x40 MLOAD PUSH2 0x160 SWAP9 SWAP8 SWAP7 SWAP6 SWAP5 SWAP4 SWAP3 SWAP2 SWAP1 PUSH2 0xD3C JUMP JUMPDEST PUSH1 0x40 MLOAD DUP1 SWAP2 SUB SWAP1 RETURN JUMPDEST CALLVALUE DUP1 ISZERO PUSH2 0x175 JUMPI PUSH1 0x0 DUP1 REVERT JUMPDEST POP PUSH2 0x17E PUSH2 0xADE JUMP JUMPDEST PUSH1 0x40 MLOAD PUSH2 0x18B SWAP2 SWAP1 PUSH2 0xBE2 JUMP JUMPDEST PUSH1 0x40 MLOAD DUP1 SWAP2 SUB SWAP1 RETURN JUMPDEST CALLVALUE DUP1 ISZERO PUSH2 0x1A0 JUMPI PUSH1 0x0 DUP1 REVERT JUMPDEST POP PUSH2 0x1A9 PUSH2 0xAE4 JUMP JUMPDEST PUSH1 0x40 MLOAD PUSH2 0x1B6 SWAP2 SWAP1 PUSH2 0xDBA JUMP JUMPDEST PUSH1 0x40 MLOAD DUP1 SWAP2 SUB SWAP1 RETURN JUMPDEST CALLVALUE DUP1 ISZERO PUSH2 0x1CB JUMPI PUSH1 0x0 DUP1 REVERT JUMPDEST POP PUSH2 0x1E6 PUSH1 0x4 DUP1 CALLDATASIZE SUB DUP2 ADD SWAP1 PUSH2 0x1E1 SWAP2 SWAP1 PUSH2 0xCCC JUMP JUMPDEST PUSH2 0xAFC JUMP JUMPDEST PUSH1 0x40 MLOAD PUSH2 0x1F3 SWAP2 SWAP1 PUSH2 0xBE2 JUMP JUMPDEST PUSH1 0x40 MLOAD DUP1 SWAP2 SUB SWAP1 RETURN JUMPDEST CALLVALUE DUP1 ISZERO PUSH2 0x208 JUMPI PUSH1 0x0 DUP1 REVERT JUMPDEST POP PUSH2 0x211 PUSH2 0xB1F JUMP JUMPDEST PUSH1 0x40 MLOAD PUSH2 0x21E SWAP2 SWAP1 PUSH2 0xBE2 JUMP JUMPDEST PUSH1 0x40 MLOAD DUP1 SWAP2 SUB SWAP1 RETURN JUMPDEST CALLVALUE DUP1 ISZERO PUSH2 0x233 JUMPI PUSH1 0x0 DUP1 REVERT JUMPDEST POP PUSH2 0x23C PUSH2 0xB24 JUMP JUMPDEST PUSH1 0x40 MLOAD PUSH2 0x249 SWAP2 SWAP1 PUSH2 0xBE2 JUMP JUMPDEST PUSH1 0x40 MLOAD DUP1 SWAP2 SUB SWAP1 RETURN JUMPDEST CALLVALUE DUP1 ISZERO PUSH2 0x25E JUMPI PUSH1 0x0 DUP1 REVERT JUMPDEST POP PUSH2 0x267 PUSH2 0xB2E JUMP JUMPDEST PUSH1 0x40 MLOAD PUSH2 0x274 SWAP2 SWAP1 PUSH2 0xBE2 JUMP JUMPDEST PUSH1 0x40 MLOAD DUP1 SWAP2 SUB SWAP1 RETURN JUMPDEST CALLVALUE DUP1 ISZERO PUSH2 0x289 JUMPI PUSH1 0x0 DUP1 REVERT JUMPDEST POP PUSH2 0x2A4 PUSH1 0x4 DUP1 CALLDATASIZE SUB DUP2 ADD SWAP1 PUSH2 0x29F SWAP2 SWAP1 PUSH2 0xCCC JUMP JUMPDEST PUSH2 0xB34 JUMP JUMPDEST PUSH1 0x40 MLOAD PUSH2 0x2B8 SWAP9 SWAP8 SWAP7 SWAP6 SWAP5 SWAP4 SWAP3 SWAP2 SWAP1 PUSH2 0xD3C JUMP JUMPDEST PUSH1 0x40 MLOAD DUP1 SWAP2 SUB SWAP1 RETURN JUMPDEST PUSH1 0x0 SELFBALANCE SWAP1 POP SWAP1 JUMP JUMPDEST PUSH1 0x0 DUP1 PUSH20 0xFFFFFFFFFFFFFFFFFFFFFFFFFFFFFFFFFFFFFFFF AND DUP4 PUSH20 0xFFFFFFFFFFFFFFFFFFFFFFFFFFFFFFFFFFFFFFFF AND SUB PUSH2 0x339 JUMPI PUSH1 0x40 MLOAD PUSH32 0x8C379A000000000000000000000000000000000000000000000000000000000 DUP2 MSTORE PUSH1 0x4 ADD PUSH2 0x330 SWAP1 PUSH2 0xE58 JUMP JUMPDEST PUSH1 0x40 MLOAD DUP1 SWAP2 SUB SWAP1 REVERT JUMPDEST PUSH1 0x0 CALLVALUE GT PUSH2 0x37C JUMPI PUSH1 0x40 MLOAD PUSH32 0x8C379A000000000000000000000000000000000000000000000000000000000 DUP2 MSTORE PUSH1 0x4 ADD PUSH2 0x373 SWAP1 PUSH2 0xEEA JUMP JUMPDEST PUSH1 0x40 MLOAD DUP1 SWAP2 SUB SWAP1 REVERT JUMPDEST TIMESTAMP DUP3 GT PUSH2 0x3BE JUMPI PUSH1 0x40 MLOAD PUSH32 0x8C379A000000000000000000000000000000000000000000000000000000000 DUP2 MSTORE PUSH1 0x4 ADD PUSH2 0x3B5 SWAP1 PUSH2 0xF7C JUMP JUMPDEST PUSH1 0x40 MLOAD DUP1 SWAP2 SUB SWAP1 REVERT JUMPDEST PUSH1 0x1 PUSH1 0x0 DUP2 SLOAD DUP1 SWAP3 SWAP2 SWAP1 PUSH2 0x3D1 SWAP1 PUSH2 0xFCB JUMP JUMPDEST SWAP2 SWAP1 POP SSTORE SWAP1 POP PUSH1 0x40 MLOAD DUP1 PUSH2 0x100 ADD PUSH1 0x40 MSTORE DUP1 CALLVALUE DUP2 MSTORE PUSH1 0x20 ADD DUP4 DUP2 MSTORE PUSH1 0x20 ADD DUP5 PUSH20 0xFFFFFFFFFFFFFFFFFFFFFFFFFFFFFFFFFFFFFFFF AND DUP2 MSTORE PUSH1 0x20 ADD PUSH1 0x0 ISZERO ISZERO DUP2 MSTORE PUSH1 0x20 ADD NUMBER BLOCKHASH DUP2 MSTORE PUSH1 0x20 ADD NUMBER DUP2 MSTORE PUSH1 0x20 ADD TIMESTAMP DUP2 MSTORE PUSH1 0x20 ADD CALLER PUSH20 0xFFFFFFFFFFFFFFFFFFFFFFFFFFFFFFFFFFFFFFFF AND DUP2 MSTORE POP PUSH1 0x0 DUP1 DUP4 DUP2 MSTORE PUSH1 0x20 ADD SWAP1 DUP2 MSTORE PUSH1 0x20 ADD PUSH1 0x0 KECCAK256 PUSH1 0x0 DUP3 ADD MLOAD DUP2 PUSH1 0x0 ADD SSTORE PUSH1 0x20 DUP3 ADD MLOAD DUP2 PUSH1 0x1 ADD SSTORE PUSH1 0x40 DUP3 ADD MLOAD DUP2 PUSH1 0x2 ADD PUSH1 0x0 PUSH2 0x100 EXP DUP2 SLOAD DUP2 PUSH20 0xFFFFFFFFFFFFFFFFFFFFFFFFFFFFFFFFFFFFFFFF MUL NOT AND SWAP1 DUP4 PUSH20 0xFFFFFFFFFFFFFFFFFFFFFFFFFFFFFFFFFFFFFFFF AND MUL OR SWAP1 SSTORE POP PUSH1 0x60 DUP3 ADD MLOAD DUP2 PUSH1 0x2 ADD PUSH1 0x14 PUSH2 0x100 EXP DUP2 SLOAD DUP2 PUSH1 0xFF MUL NOT AND SWAP1 DUP4 ISZERO ISZERO MUL OR SWAP1 SSTORE POP PUSH1 0x80 DUP3 ADD MLOAD DUP2 PUSH1 0x3 ADD SSTORE PUSH1 0xA0 DUP3 ADD MLOAD DUP2 PUSH1 0x4 ADD SSTORE PUSH1 0xC0 DUP3 ADD MLOAD DUP2 PUSH1 0x5 ADD SSTORE PUSH1 0xE0 DUP3 ADD MLOAD DUP2 PUSH1 0x6 ADD PUSH1 0x0 PUSH2 0x100 EXP DUP2 SLOAD DUP2 PUSH20 0xFFFFFFFFFFFFFFFFFFFFFFFFFFFFFFFFFFFFFFFF MUL NOT AND SWAP1 DUP4 PUSH20 0xFFFFFFFFFFFFFFFFFFFFFFFFFFFFFFFFFFFFFFFF AND MUL OR SWAP1 SSTORE POP SWAP1 POP POP DUP3 PUSH20 0xFFFFFFFFFFFFFFFFFFFFFFFFFFFFFFFFFFFFFFFF AND CALLER PUSH20 0xFFFFFFFFFFFFFFFFFFFFFFFFFFFFFFFFFFFFFFFF AND DUP3 PUSH32 0x1729AC8AD7899ABDF9E72C1ECA99A5B9C5A1F17D3219936FD1B3B38A287BD369 CALLVALUE DUP7 NUMBER BLOCKHASH NUMBER TIMESTAMP PUSH1 0x40 MLOAD PUSH2 0x59D SWAP6 SWAP5 SWAP4 SWAP3 SWAP2 SWAP1 PUSH2 0x1013 JUMP JUMPDEST PUSH1 0x40 MLOAD DUP1 SWAP2 SUB SWAP1 LOG4 SWAP3 SWAP2 POP POP JUMP JUMPDEST DUP1 PUSH1 0x1 SLOAD DUP2 LT PUSH2 0x5F0 JUMPI PUSH1 0x40 MLOAD PUSH32 0x8C379A000000000000000000000000000000000000000000000000000000000 DUP2 MSTORE PUSH1 0x4 ADD PUSH2 0x5E7 SWAP1 PUSH2 0x10B2 JUMP JUMPDEST PUSH1 0x40 MLOAD DUP1 SWAP2 SUB SWAP1 REVERT JUMPDEST PUSH1 0x0 DUP1 DUP3 DUP2 MSTORE PUSH1 0x20 ADD SWAP1 DUP2 MSTORE PUSH1 0x20 ADD PUSH1 0x0 KECCAK256 PUSH1 0x2 ADD PUSH1 0x14 SWAP1 SLOAD SWAP1 PUSH2 0x100 EXP SWAP1 DIV PUSH1 0xFF AND ISZERO PUSH2 0x653 JUMPI PUSH1 0x40 MLOAD PUSH32 0x8C379A000000000000000000000000000000000000000000000000000000000 DUP2 MSTORE PUSH1 0x4 ADD PUSH2 0x64A SWAP1 PUSH2 0x1144 JUMP JUMPDEST PUSH1 0x40 MLOAD DUP1 SWAP2 SUB SWAP1 REVERT JUMPDEST PUSH1 0x0 DUP1 PUSH1 0x0 DUP5 DUP2 MSTORE PUSH1 0x20 ADD SWAP1 DUP2 MSTORE PUSH1 0x20 ADD PUSH1 0x0 KECCAK256 SWAP1 POP DUP1 PUSH1 0x2 ADD PUSH1 0x0 SWAP1 SLOAD SWAP1 PUSH2 0x100 EXP SWAP1 DIV PUSH20 0xFFFFFFFFFFFFFFFFFFFFFFFFFFFFFFFFFFFFFFFF AND PUSH20 0xFFFFFFFFFFFFFFFFFFFFFFFFFFFFFFFFFFFFFFFF AND CALLER PUSH20 0xFFFFFFFFFFFFFFFFFFFFFFFFFFFFFFFFFFFFFFFF AND EQ PUSH2 0x6FB JUMPI PUSH1 0x40 MLOAD PUSH32 0x8C379A000000000000000000000000000000000000000000000000000000000 DUP2 MSTORE PUSH1 0x4 ADD PUSH2 0x6F2 SWAP1 PUSH2 0x11D6 JUMP JUMPDEST PUSH1 0x40 MLOAD DUP1 SWAP2 SUB SWAP1 REVERT JUMPDEST DUP1 PUSH1 0x1 ADD SLOAD TIMESTAMP LT ISZERO PUSH2 0x742 JUMPI PUSH1 0x40 MLOAD PUSH32 0x8C379A000000000000000000000000000000000000000000000000000000000 DUP2 MSTORE PUSH1 0x4 ADD PUSH2 0x739 SWAP1 PUSH2 0x1268 JUMP JUMPDEST PUSH1 0x40 MLOAD DUP1 SWAP2 SUB SWAP1 REVERT JUMPDEST PUSH1 0x1 DUP2 PUSH1 0x2 ADD PUSH1 0x14 PUSH2 0x100 EXP DUP2 SLOAD DUP2 PUSH1 0xFF MUL NOT AND SWAP1 DUP4 ISZERO ISZERO MUL OR SWAP1 SSTORE POP PUSH1 0x0 DUP2 PUSH1 0x0 ADD SLOAD SWAP1 POP PUSH1 0x0 PUSH2 0x2710 PUSH1 0x64 DUP4 PUSH2 0x77A SWAP2 SWAP1 PUSH2 0x1288 JUMP JUMPDEST PUSH2 0x784 SWAP2 SWAP1 PUSH2 0x12F9 JUMP JUMPDEST SWAP1 POP PUSH1 0x0 DUP2 DUP4 PUSH2 0x794 SWAP2 SWAP1 PUSH2 0x132A JUMP JUMPDEST SWAP1 POP PUSH1 0x0 DUP3 GT ISZERO PUSH2 0x899 JUMPI PUSH1 0x0 PUSH20 0x788ACB08DE2F55B7F2086D1F45478A926921E29 PUSH20 0xFFFFFFFFFFFFFFFFFFFFFFFFFFFFFFFFFFFFFFFF AND DUP4 PUSH1 0x40 MLOAD PUSH2 0x7D9 SWAP1 PUSH2 0x138F JUMP JUMPDEST PUSH1 0x0 PUSH1 0x40 MLOAD DUP1 DUP4 SUB DUP2 DUP6 DUP8 GAS CALL SWAP3 POP POP POP RETURNDATASIZE DUP1 PUSH1 0x0 DUP2 EQ PUSH2 0x816 JUMPI PUSH1 0x40 MLOAD SWAP2 POP PUSH1 0x1F NOT PUSH1 0x3F RETURNDATASIZE ADD AND DUP3 ADD PUSH1 0x40 MSTORE RETURNDATASIZE DUP3 MSTORE RETURNDATASIZE PUSH1 0x0 PUSH1 0x20 DUP5 ADD RETURNDATACOPY PUSH2 0x81B JUMP JUMPDEST PUSH1 0x60 SWAP2 POP JUMPDEST POP POP SWAP1 POP DUP1 PUSH2 0x85F JUMPI PUSH1 0x40 MLOAD PUSH32 0x8C379A000000000000000000000000000000000000000000000000000000000 DUP2 MSTORE PUSH1 0x4 ADD PUSH2 0x856 SWAP1 PUSH2 0x1416 JUMP JUMPDEST PUSH1 0x40 MLOAD DUP1 SWAP2 SUB SWAP1 REVERT JUMPDEST DUP7 PUSH32 0xAF7C505EE772EC188AF7067E1F73DB08AB028E3D564273442B907742B9C41FA0 DUP5 PUSH1 0x40 MLOAD PUSH2 0x88F SWAP2 SWAP1 PUSH2 0xBE2 JUMP JUMPDEST PUSH1 0x40 MLOAD DUP1 SWAP2 SUB SWAP1 LOG2 POP JUMPDEST PUSH1 0x0 DUP5 PUSH1 0x2 ADD PUSH1 0x0 SWAP1 SLOAD SWAP1 PUSH2 0x100 EXP SWAP1 DIV PUSH20 0xFFFFFFFFFFFFFFFFFFFFFFFFFFFFFFFFFFFFFFFF AND PUSH20 0xFFFFFFFFFFFFFFFFFFFFFFFFFFFFFFFFFFFFFFFF AND DUP3 PUSH1 0x40 MLOAD PUSH2 0x8E3 SWAP1 PUSH2 0x138F JUMP JUMPDEST PUSH1 0x0 PUSH1 0x40 MLOAD DUP1 DUP4 SUB DUP2 DUP6 DUP8 GAS CALL SWAP3 POP POP POP RETURNDATASIZE DUP1 PUSH1 0x0 DUP2 EQ PUSH2 0x920 JUMPI PUSH1 0x40 MLOAD SWAP2 POP PUSH1 0x1F NOT PUSH1 0x3F RETURNDATASIZE ADD AND DUP3 ADD PUSH1 0x40 MSTORE RETURNDATASIZE DUP3 MSTORE RETURNDATASIZE PUSH1 0x0 PUSH1 0x20 DUP5 ADD RETURNDATACOPY PUSH2 0x925 JUMP JUMPDEST PUSH1 0x60 SWAP2 POP JUMPDEST POP POP SWAP1 POP DUP1 PUSH2 0x969 JUMPI PUSH1 0x40 MLOAD PUSH32 0x8C379A000000000000000000000000000000000000000000000000000000000 DUP2 MSTORE PUSH1 0x4 ADD PUSH2 0x960 SWAP1 PUSH2 0x1482 JUMP JUMPDEST PUSH1 0x40 MLOAD DUP1 SWAP2 SUB SWAP1 REVERT JUMPDEST DUP5 PUSH1 0x2 ADD PUSH1 0x0 SWAP1 SLOAD SWAP1 PUSH2 0x100 EXP SWAP1 DIV PUSH20 0xFFFFFFFFFFFFFFFFFFFFFFFFFFFFFFFFFFFFFFFF AND PUSH20 0xFFFFFFFFFFFFFFFFFFFFFFFFFFFFFFFFFFFFFFFF AND DUP8 PUSH32 0x3DBB1A26F29AEF1264C12CA1285DEB60CCA5666D8B17100C7EA1602C0A4014F6 DUP5 DUP7 PUSH1 0x40 MLOAD PUSH2 0x9D6 SWAP3 SWAP2 SWAP1 PUSH2 0x14A2 JUMP JUMPDEST PUSH1 0x40 MLOAD DUP1 SWAP2 SUB SWAP1 LOG3 POP POP POP POP POP POP POP JUMP JUMPDEST PUSH1 0x0 DUP1 PUSH1 0x0 DUP1 PUSH1 0x0 DUP1 PUSH1 0x0 DUP1 PUSH1 0x1 SLOAD DUP10 LT PUSH2 0xA37 JUMPI PUSH1 0x40 MLOAD PUSH32 0x8C379A000000000000000000000000000000000000000000000000000000000 DUP2 MSTORE PUSH1 0x4 ADD PUSH2 0xA2E SWAP1 PUSH2 0x10B2 JUMP JUMPDEST PUSH1 0x40 MLOAD DUP1 SWAP2 SUB SWAP1 REVERT JUMPDEST PUSH1 0x0 DUP1 PUSH1 0x0 DUP12 DUP2 MSTORE PUSH1 0x20 ADD SWAP1 DUP2 MSTORE PUSH1 0x20 ADD PUSH1 0x0 KECCAK256 SWAP1 POP DUP1 PUSH1 0x0 ADD SLOAD DUP2 PUSH1 0x1 ADD SLOAD DUP3 PUSH1 0x2 ADD PUSH1 0x0 SWAP1 SLOAD SWAP1 PUSH2 0x100 EXP SWAP1 DIV PUSH20 0xFFFFFFFFFFFFFFFFFFFFFFFFFFFFFFFFFFFFFFFF AND DUP4 PUSH1 0x2 ADD PUSH1 0x14 SWAP1 SLOAD SWAP1 PUSH2 0x100 EXP SWAP1 DIV PUSH1 0xFF AND DUP5 PUSH1 0x3 ADD SLOAD DUP6 PUSH1 0x4 ADD SLOAD DUP7 PUSH1 0x5 ADD SLOAD DUP8 PUSH1 0x6 ADD PUSH1 0x0 SWAP1 SLOAD SWAP1 PUSH2 0x100 EXP SWAP1 DIV PUSH20 0xFFFFFFFFFFFFFFFFFFFFFFFFFFFFFFFFFFFFFFFF AND SWAP9 POP SWAP9 POP SWAP9 POP SWAP9 POP SWAP9 POP SWAP9 POP SWAP9 POP SWAP9 POP POP SWAP2 SWAP4 SWAP6 SWAP8 POP SWAP2 SWAP4 SWAP6 SWAP8 JUMP JUMPDEST PUSH1 0x1 SLOAD DUP2 JUMP JUMPDEST PUSH20 0x788ACB08DE2F55B7F2086D1F45478A926921E29 DUP2 JUMP JUMPDEST PUSH1 0x0 PUSH2 0x2710 PUSH1 0x64 DUP4 PUSH2 0xB0E SWAP2 SWAP1 PUSH2 0x1288 JUMP JUMPDEST PUSH2 0xB18 SWAP2 SWAP1 PUSH2 0x12F9 JUMP JUMPDEST SWAP1 POP SWAP2 SWAP1 POP JUMP JUMPDEST PUSH1 0x64 DUP2 JUMP JUMPDEST PUSH1 0x0 PUSH1 0x1 SLOAD SWAP1 POP SWAP1 JUMP JUMPDEST PUSH2 0x2710 DUP2 JUMP JUMPDEST PUSH1 0x0 PUSH1 0x20 MSTORE DUP1 PUSH1 0x0 MSTORE PUSH1 0x40 PUSH1 0x0 KECCAK256 PUSH1 0x0 SWAP2 POP SWAP1 POP DUP1 PUSH1 0x0 ADD SLOAD SWAP1 DUP1 PUSH1 0x1 ADD SLOAD SWAP1 DUP1 PUSH1 0x2 ADD PUSH1 0x0 SWAP1 SLOAD SWAP1 PUSH2 0x100 EXP SWAP1 DIV PUSH20 0xFFFFFFFFFFFFFFFFFFFFFFFFFFFFFFFFFFFFFFFF AND SWAP1 DUP1 PUSH1 0x2 ADD PUSH1 0x14 SWAP1 SLOAD SWAP1 PUSH2 0x100 EXP SWAP1 DIV PUSH1 0xFF AND SWAP1 DUP1 PUSH1 0x3 ADD SLOAD SWAP1 DUP1 PUSH1 0x4 ADD SLOAD SWAP1 DUP1 PUSH1 0x5 ADD SLOAD SWAP1 DUP1 PUSH1 0x6 ADD PUSH1 0x0 SWAP1 SLOAD SWAP1 PUSH2 0x100 EXP SWAP1 DIV PUSH20 0xFFFFFFFFFFFFFFFFFFFFFFFFFFFFFFFFFFFFFFFF AND SWAP1 POP DUP9 JUMP JUMPDEST PUSH1 0x0 DUP2 SWAP1 POP SWAP2 SWAP1 POP JUMP JUMPDEST PUSH2 0xBDC DUP2 PUSH2 0xBC9 JUMP JUMPDEST DUP3 MSTORE POP POP JUMP JUMPDEST PUSH1 0x0 PUSH1 0x20 DUP3 ADD SWAP1 POP PUSH2 0xBF7 PUSH1 0x0 DUP4 ADD DUP5 PUSH2 0xBD3 JUMP JUMPDEST SWAP3 SWAP2 POP POP JUMP JUMPDEST PUSH1 0x0 DUP1 REVERT JUMPDEST PUSH1 0x0 PUSH20 0xFFFFFFFFFFFFFFFFFFFFFFFFFFFFFFFFFFFFFFFF DUP3 AND SWAP1 POP SWAP2 SWAP1 POP JUMP JUMPDEST PUSH1 0x0 PUSH2 0xC2D DUP3 PUSH2 0xC02 JUMP JUMPDEST SWAP1 POP SWAP2 SWAP1 POP JUMP JUMPDEST PUSH2 0xC3D DUP2 PUSH2 0xC22 JUMP JUMPDEST DUP2 EQ PUSH2 0xC48 JUMPI PUSH1 0x0 DUP1 REVERT JUMPDEST POP JUMP JUMPDEST PUSH1 0x0 DUP2 CALLDATALOAD SWAP1 POP PUSH2 0xC5A DUP2 PUSH2 0xC34 JUMP JUMPDEST SWAP3 SWAP2 POP POP JUMP JUMPDEST PUSH2 0xC69 DUP2 PUSH2 0xBC9 JUMP JUMPDEST DUP2 EQ PUSH2 0xC74 JUMPI PUSH1 0x0 DUP1 REVERT JUMPDEST POP JUMP JUMPDEST PUSH1 0x0 DUP2 CALLDATALOAD SWAP1 POP PUSH2 0xC86 DUP2 PUSH2 0xC60 JUMP JUMPDEST SWAP3 SWAP2 POP POP JUMP JUMPDEST PUSH1 0x0 DUP1 PUSH1 0x40 DUP4 DUP6 SUB SLT ISZERO PUSH2 0xCA3 JUMPI PUSH2 0xCA2 PUSH2 0xBFD JUMP JUMPDEST JUMPDEST PUSH1 0x0 PUSH2 0xCB1 DUP6 DUP3 DUP7 ADD PUSH2 0xC4B JUMP JUMPDEST SWAP3 POP POP PUSH1 0x20 PUSH2 0xCC2 DUP6 DUP3 DUP7 ADD PUSH2 0xC77 JUMP JUMPDEST SWAP2 POP POP SWAP3 POP SWAP3 SWAP1 POP JUMP JUMPDEST PUSH1 0x0 PUSH1 0x20 DUP3 DUP5 SUB SLT ISZERO PUSH2 0xCE2 JUMPI PUSH2 0xCE1 PUSH2 0xBFD JUMP JUMPDEST JUMPDEST PUSH1 0x0 PUSH2 0xCF0 DUP5 DUP3 DUP6 ADD PUSH2 0xC77 JUMP JUMPDEST SWAP2 POP POP SWAP3 SWAP2 POP POP JUMP JUMPDEST PUSH2 0xD02 DUP2 PUSH2 0xC22 JUMP JUMPDEST DUP3 MSTORE POP POP JUMP JUMPDEST PUSH1 0x0 DUP2 ISZERO ISZERO SWAP1 POP SWAP2 SWAP1 POP JUMP JUMPDEST PUSH2 0xD1D DUP2 PUSH2 0xD08 JUMP JUMPDEST DUP3 MSTORE POP POP JUMP JUMPDEST PUSH1 0x0 DUP2 SWAP1 POP SWAP2 SWAP1 POP JUMP JUMPDEST PUSH2 0xD36 DUP2 PUSH2 0xD23 JUMP JUMPDEST DUP3 MSTORE POP POP JUMP JUMPDEST PUSH1 0x0 PUSH2 0x100 DUP3 ADD SWAP1 POP PUSH2 0xD52 PUSH1 0x0 DUP4 ADD DUP12 PUSH2 0xBD3 JUMP JUMPDEST PUSH2 0xD5F PUSH1 0x20 DUP4 ADD DUP11 PUSH2 0xBD3 JUMP JUMPDEST PUSH2 0xD6C PUSH1 0x40 DUP4 ADD DUP10 PUSH2 0xCF9 JUMP JUMPDEST PUSH2 0xD79 PUSH1 0x60 DUP4 ADD DUP9 PUSH2 0xD14 JUMP JUMPDEST PUSH2 0xD86 PUSH1 0x80 DUP4 ADD DUP8 PUSH2 0xD2D JUMP JUMPDEST PUSH2 0xD93 PUSH1 0xA0 DUP4 ADD DUP7 PUSH2 0xBD3 JUMP JUMPDEST PUSH2 0xDA0 PUSH1 0xC0 DUP4 ADD DUP6 PUSH2 0xBD3 JUMP JUMPDEST PUSH2 0xDAD PUSH1 0xE0 DUP4 ADD DUP5 PUSH2 0xCF9 JUMP JUMPDEST SWAP10 SWAP9 POP POP POP POP POP POP POP POP POP JUMP JUMPDEST PUSH1 0x0 PUSH1 0x20 DUP3 ADD SWAP1 POP PUSH2 0xDCF PUSH1 0x0 DUP4 ADD DUP5 PUSH2 0xCF9 JUMP JUMPDEST SWAP3 SWAP2 POP POP JUMP JUMPDEST PUSH1 0x0 DUP3 DUP3 MSTORE PUSH1 0x20 DUP3 ADD SWAP1 POP SWAP3 SWAP2 POP POP JUMP JUMPDEST PUSH32 0x54696D654C6F636B57616C6C65743A20726563697069656E74206973207A6572 PUSH1 0x0 DUP3 ADD MSTORE PUSH32 0x6F20616464726573730000000000000000000000000000000000000000000000 PUSH1 0x20 DUP3 ADD MSTORE POP JUMP JUMPDEST PUSH1 0x0 PUSH2 0xE42 PUSH1 0x29 DUP4 PUSH2 0xDD5 JUMP JUMPDEST SWAP2 POP PUSH2 0xE4D DUP3 PUSH2 0xDE6 JUMP JUMPDEST PUSH1 0x40 DUP3 ADD SWAP1 POP SWAP2 SWAP1 POP JUMP JUMPDEST PUSH1 0x0 PUSH1 0x20 DUP3 ADD SWAP1 POP DUP2 DUP2 SUB PUSH1 0x0 DUP4 ADD MSTORE PUSH2 0xE71 DUP2 PUSH2 0xE35 JUMP JUMPDEST SWAP1 POP SWAP2 SWAP1 POP JUMP JUMPDEST PUSH32 0x54696D654C6F636B57616C6C65743A20616D6F756E74206D7573742062652067 PUSH1 0x0 DUP3 ADD MSTORE PUSH32 0x726561746572207468616E207A65726F00000000000000000000000000000000 PUSH1 0x20 DUP3 ADD MSTORE POP JUMP JUMPDEST PUSH1 0x0 PUSH2 0xED4 PUSH1 0x30 DUP4 PUSH2 0xDD5 JUMP JUMPDEST SWAP2 POP PUSH2 0xEDF DUP3 PUSH2 0xE78 JUMP JUMPDEST PUSH1 0x40 DUP3 ADD SWAP1 POP SWAP2 SWAP1 POP JUMP JUMPDEST PUSH1 0x0 PUSH1 0x20 DUP3 ADD SWAP1 POP DUP2 DUP2 SUB PUSH1 0x0 DUP4 ADD MSTORE PUSH2 0xF03 DUP2 PUSH2 0xEC7 JUMP JUMPDEST SWAP1 POP SWAP2 SWAP1 POP JUMP JUMPDEST PUSH32 0x54696D654C6F636B57616C6C65743A2072656C656173652074696D65206D7573 PUSH1 0x0 DUP3 ADD MSTORE PUSH32 0x7420626520696E20667574757265000000000000000000000000000000000000 PUSH1 0x20 DUP3 ADD MSTORE POP JUMP JUMPDEST PUSH1 0x0 PUSH2 0xF66 PUSH1 0x2E DUP4 PUSH2 0xDD5 JUMP JUMPDEST SWAP2 POP PUSH2 0xF71 DUP3 PUSH2 0xF0A JUMP JUMPDEST PUSH1 0x40 DUP3 ADD SWAP1 POP SWAP2 SWAP1 POP JUMP JUMPDEST PUSH1 0x0 PUSH1 0x20 DUP3 ADD SWAP1 POP DUP2 DUP2 SUB PUSH1 0x0 DUP4 ADD MSTORE PUSH2 0xF95 DUP2 PUSH2 0xF59 JUMP JUMPDEST SWAP1 POP SWAP2 SWAP1 POP JUMP JUMPDEST PUSH32 0x4E487B7100000000000000000000000000000000000000000000000000000000 PUSH1 0x0 MSTORE PUSH1 0x11 PUSH1 0x4 MSTORE PUSH1 0x24 PUSH1 0x0 REVERT JUMPDEST PUSH1 0x0 PUSH2 0xFD6 DUP3 PUSH2 0xBC9 JUMP JUMPDEST SWAP2 POP PUSH32 0xFFFFFFFFFFFFFFFFFFFFFFFFFFFFFFFFFFFFFFFFFFFFFFFFFFFFFFFFFFFFFFFF DUP3 SUB PUSH2 0x1008 JUMPI PUSH2 0x1007 PUSH2 0xF9C JUMP JUMPDEST JUMPDEST PUSH1 0x1 DUP3 ADD SWAP1 POP SWAP2 SWAP1 POP JUMP JUMPDEST PUSH1 0x0 PUSH1 0xA0 DUP3 ADD SWAP1 POP PUSH2 0x1028 PUSH1 0x0 DUP4 ADD DUP9 PUSH2 0xBD3 JUMP JUMPDEST PUSH2 0x1035 PUSH1 0x20 DUP4 ADD DUP8 PUSH2 0xBD3 JUMP JUMPDEST PUSH2 0x1042 PUSH1 0x40 DUP4 ADD DUP7 PUSH2 0xD2D JUMP JUMPDEST PUSH2 0x104F PUSH1 0x60 DUP4 ADD DUP6 PUSH2 0xBD3 JUMP JUMPDEST PUSH2 0x105C PUSH1 0x80 DUP4 ADD DUP5 PUSH2 0xBD3 JUMP JUMPDEST SWAP7 SWAP6 POP POP POP POP POP POP JUMP JUMPDEST PUSH32 0x54696D654C6F636B57616C6C65743A20696E76616C6964206C6F636B20696400 PUSH1 0x0 DUP3 ADD MSTORE POP JUMP JUMPDEST PUSH1 0x0 PUSH2 0x109C PUSH1 0x1F DUP4 PUSH2 0xDD5 JUMP JUMPDEST SWAP2 POP PUSH2 0x10A7 DUP3 PUSH2 0x1066 JUMP JUMPDEST PUSH1 0x20 DUP3 ADD SWAP1 POP SWAP2 SWAP1 POP JUMP JUMPDEST PUSH1 0x0 PUSH1 0x20 DUP3 ADD SWAP1 POP DUP2 DUP2 SUB PUSH1 0x0 DUP4 ADD MSTORE PUSH2 0x10CB DUP2 PUSH2 0x108F JUMP JUMPDEST SWAP1 POP SWAP2 SWAP1 POP JUMP JUMPDEST PUSH32 0x54696D654C6F636B57616C6C65743A2066756E647320616C7265616479207769 PUSH1 0x0 DUP3 ADD MSTORE PUSH32 0x7468647261776E00000000000000000000000000000000000000000000000000 PUSH1 0x20 DUP3 ADD MSTORE POP JUMP JUMPDEST PUSH1 0x0 PUSH2 0x112E PUSH1 0x27 DUP4 PUSH2 0xDD5 JUMP JUMPDEST SWAP2 POP PUSH2 0x1139 DUP3 PUSH2 0x10D2 JUMP JUMPDEST PUSH1 0x40 DUP3 ADD SWAP1 POP SWAP2 SWAP1 POP JUMP JUMPDEST PUSH1 0x0 PUSH1 0x20 DUP3 ADD SWAP1 POP DUP2 DUP2 SUB PUSH1 0x0 DUP4 ADD MSTORE PUSH2 0x115D DUP2 PUSH2 0x1121 JUMP JUMPDEST SWAP1 POP SWAP2 SWAP1 POP JUMP JUMPDEST PUSH32 0x54696D654C6F636B57616C6C65743A2063616C6C6572206973206E6F74207468 PUSH1 0x0 DUP3 ADD MSTORE PUSH32 0x6520726563697069656E74000000000000000000000000000000000000000000 PUSH1 0x20 DUP3 ADD MSTORE POP JUMP JUMPDEST PUSH1 0x0 PUSH2 0x11C0 PUSH1 0x2B DUP4 PUSH2 0xDD5 JUMP JUMPDEST SWAP2 POP PUSH2 0x11CB DUP3 PUSH2 0x1164 JUMP JUMPDEST PUSH1 0x40 DUP3 ADD SWAP1 POP SWAP2 SWAP1 POP JUMP JUMPDEST PUSH1 0x0 PUSH1 0x20 DUP3 ADD SWAP1 POP DUP2 DUP2 SUB PUSH1 0x0 DUP4 ADD MSTORE PUSH2 0x11EF DUP2 PUSH2 0x11B3 JUMP JUMPDEST SWAP1 POP SWAP2 SWAP1 POP JUMP JUMPDEST PUSH32 0x54696D654C6F636B57616C6C65743A2072656C656173652074696D65206E6F74 PUSH1 0x0 DUP3 ADD MSTORE PUSH32 0x2072656163686564000000000000000000000000000000000000000000000000 PUSH1 0x20 DUP3 ADD MSTORE POP JUMP JUMPDEST PUSH1 0x0 PUSH2 0x1252 PUSH1 0x28 DUP4 PUSH2 0xDD5 JUMP JUMPDEST SWAP2 POP PUSH2 0x125D DUP3 PUSH2 0x11F6 JUMP JUMPDEST PUSH1 0x40 DUP3 ADD SWAP1 POP SWAP2 SWAP1 POP JUMP JUMPDEST PUSH1 0x0 PUSH1 0x20 DUP3 ADD SWAP1 POP DUP2 DUP2 SUB PUSH1 0x0 DUP4 ADD MSTORE PUSH2 0x1281 DUP2 PUSH2 0x1245 JUMP JUMPDEST SWAP1 POP SWAP2 SWAP1 POP JUMP JUMPDEST PUSH1 0x0 PUSH2 0x1293 DUP3 PUSH2 0xBC9 JUMP JUMPDEST SWAP2 POP PUSH2 0x129E DUP4 PUSH2 0xBC9 JUMP JUMPDEST SWAP3 POP DUP3 DUP3 MUL PUSH2 0x12AC DUP2 PUSH2 0xBC9 JUMP JUMPDEST SWAP2 POP DUP3 DUP3 DIV DUP5 EQ DUP4 ISZERO OR PUSH2 0x12C3 JUMPI PUSH2 0x12C2 PUSH2 0xF9C JUMP JUMPDEST JUMPDEST POP SWAP3 SWAP2 POP POP JUMP JUMPDEST PUSH32 0x4E487B7100000000000000000000000000000000000000000000000000000000 PUSH1 0x0 MSTORE PUSH1 0x12 PUSH1 0x4 MSTORE PUSH1 0x24 PUSH1 0x0 REVERT JUMPDEST PUSH1 0x0 PUSH2 0x1304 DUP3 PUSH2 0xBC9 JUMP JUMPDEST SWAP2 POP PUSH2 0x130F DUP4 PUSH2 0xBC9 JUMP JUMPDEST SWAP3 POP DUP3 PUSH2 0x131F JUMPI PUSH2 0x131E PUSH2 0x12CA JUMP JUMPDEST JUMPDEST DUP3 DUP3 DIV SWAP1 POP SWAP3 SWAP2 POP POP JUMP JUMPDEST PUSH1 0x0 PUSH2 0x1335 DUP3 PUSH2 0xBC9 JUMP JUMPDEST SWAP2 POP PUSH2 0x1340 DUP4 PUSH2 0xBC9 JUMP JUMPDEST SWAP3 POP DUP3 DUP3 SUB SWAP1 POP DUP2 DUP2 GT ISZERO PUSH2 0x1358 JUMPI PUSH2 0x1357 PUSH2 0xF9C JUMP JUMPDEST JUMPDEST SWAP3 SWAP2 POP POP JUMP JUMPDEST PUSH1 0x0 DUP2 SWAP1 POP SWAP3 SWAP2 POP POP JUMP JUMPDEST POP JUMP JUMPDEST PUSH1 0x0 PUSH2 0x1379 PUSH1 0x0 DUP4 PUSH2 0x135E JUMP JUMPDEST SWAP2 POP PUSH2 0x1384 DUP3 PUSH2 0x1369 JUMP JUMPDEST PUSH1 0x0 DUP3 ADD SWAP1 POP SWAP2 SWAP1 POP JUMP JUMPDEST PUSH1 0x0 PUSH2 0x139A DUP3 PUSH2 0x136C JUMP JUMPDEST SWAP2 POP DUP2 SWAP1 POP SWAP2 SWAP1 POP JUMP JUMPDEST PUSH32 0x54696D654C6F636B57616C6C65743A20666565207472616E7366657220666169 PUSH1 0x0 DUP3 ADD MSTORE PUSH32 0x6C65640000000000000000000000000000000000000000000000000000000000 PUSH1 0x20 DUP3 ADD MSTORE POP JUMP JUMPDEST PUSH1 0x0 PUSH2 0x1400 PUSH1 0x23 DUP4 PUSH2 0xDD5 JUMP JUMPDEST SWAP2 POP PUSH2 0x140B DUP3 PUSH2 0x13A4 JUMP JUMPDEST PUSH1 0x40 DUP3 ADD SWAP1 POP SWAP2 SWAP1 POP JUMP JUMPDEST PUSH1 0x0 PUSH1 0x20 DUP3 ADD SWAP1 POP DUP2 DUP2 SUB PUSH1 0x0 DUP4 ADD MSTORE PUSH2 0x142F DUP2 PUSH2 0x13F3 JUMP JUMPDEST SWAP1 POP SWAP2 SWAP1 POP JUMP JUMPDEST PUSH32 0x54696D654C6F636B57616C6C65743A207472616E73666572206661696C656400 PUSH1 0x0 DUP3 ADD MSTORE POP JUMP JUMPDEST PUSH1 0x0 PUSH2 0x146C PUSH1 0x1F DUP4 PUSH2 0xDD5 JUMP JUMPDEST SWAP2 POP PUSH2 0x1477 DUP3 PUSH2 0x1436 JUMP JUMPDEST PUSH1 0x20 DUP3 ADD SWAP1 POP SWAP2 SWAP1 POP JUMP JUMPDEST PUSH1 0x0 PUSH1 0x20 DUP3 ADD SWAP1 POP DUP2 DUP2 SUB PUSH1 0x0 DUP4 ADD MSTORE PUSH2 0x149B DUP2 PUSH2 0x145F JUMP JUMPDEST SWAP1 POP SWAP2 SWAP1 POP JUMP JUMPDEST PUSH1 0x0 PUSH1 0x40 DUP3 ADD SWAP1 POP PUSH2 0x14B7 PUSH1 0x0 DUP4 ADD DUP6 PUSH2 0xBD3 JUMP JUMPDEST PUSH2 0x14C4 PUSH1 0x20 DUP4 ADD DUP5 PUSH2 0xBD3 JUMP JUMPDEST SWAP4 SWAP3 POP POP POP JUMP INVALID LOG2 PUSH5 0x6970667358 0x22 SLT KECCAK256 0x4C DUP12 MSTORE8 PUSH24 0x71C6C9136A5DC1211B5C310F803482C80A9B48ED6FC613A2 LOG4 RETURNDATASIZE SWAP2 0xAA PUSH5 0x736F6C6343 STOP ADDMOD EQ STOP CALLER "},"methodIdentifiers":{"BASIS_POINTS()":"e1f1c4a7","FEE_BASIS_POINTS()":"a525ad3c","FEE_COLLECTOR()":"7f660b01","calculateFee(uint256)":"99a5d747","getBalance()":"12065fe0","getLockDetails(uint256)":"5b15bfd9","getLocksCount()":"de3794c4","lockFunds(address,uint256)":"12e382b4","locks(uint256)":"f4dadc61","nextLockId()":"6518a0b3","withdraw(uint256)":"2e1a7d4d"}}}}}