{"contracts/TimeLockWallet.sol":{"TimeLockWallet":{"abi":[{"anonymous":false,"inputs":[{"indexed":true,"internalType":"uint256","name":"lockId","type":"uint256"},{"indexed":false,"internalType":"uint256","name":"feeAmount","type":"uint256"}],"name":"FeeCollected","type":"event"},{"anonymous":false,"inputs":[{"indexed":true,"internalType":"uint256","name":"lockId","type":"uint256"},{"indexed":true,"internalType":"address","name":"sender","type":"address"},{"indexed":true,"internalType":"address","name":"recipient","type":"address"},{"indexed":false,"internalType":"uint256","name":"amount","type":"uint256"},{"indexed":false,"internalType":"uint256","name":"releaseTime","type":"uint256"}],"name":"FundsLocked","type":"event"},{"anonymous":false,"inputs":[{"indexed":true,"internalType":"uint256","name":"lockId","type":"uint256"},{"indexed":true,"internalType":"address","name":"recipient","type":"address"},{"indexed":false,"internalType":"uint256","name":"amount","type":"uint256"},{"indexed":false,"internalType":"uint256","name":"fee","type":"uint256"}],"name":"FundsWithdrawn","type":"event"},{"inputs":[],"name":"BASIS_POINTS","outputs":[{"internalType":"uint256","name":"","type":"uint256"}],"stateMutability":"view","type":"function"},{"inputs":[],"name":"FEE_BASIS_POINTS","outputs":[{"internalType":"uint256","name":"","type":"uint256"}],"stateMutability":"view","type":"function"},{"inputs":[],"name":"FEE_COLLECTOR","outputs":[{"internalType":"address","name":"","type":"address"}],"stateMutability":"view","type":"function"},{"inputs":[{"internalType":"uint256","name":"amount","type":"uint256"}],"name":"calculateFee","outputs":[{"internalType":"uint256","name":"","type":"uint256"}],"stateMutability":"pure","type":"function"},{"inputs":[],"name":"getBalance","outputs":[{"internalType":"uint256","name":"","type":"uint256"}],"stateMutability":"view","type":"function"},{"inputs":[{"internalType":"uint256","name":"lockId","type":"uint256"}],"name":"getLockDetails","outputs":[{"internalType":"uint256","name":"amount","type":"uint256"},{"internalType":"uint256","name":"releaseTime","type":"uint256"},{"internalType":"address","name":"recipient","type":"address"},{"internalType":"bool","name":"withdrawn","type":"bool"}],"stateMutability":"view","type":"function"},{"inputs":[],"name":"getLocksCount","outputs":[{"internalType":"uint256","name":"","type":"uint256"}],"stateMutability":"view","type":"function"},{"inputs":[{"internalType":"address","name":"recipient","type":"address"},{"internalType":"uint256","name":"releaseTime","type":"uint256"}],"name":"lockFunds","outputs":[{"internalType":"uint256","name":"lockId","type":"uint256"}],"stateMutability":"payable","type":"function"},{"inputs":[{"internalType":"uint256","name":"","type":"uint256"}],"name":"locks","outputs":[{"internalType":"uint256","name":"amount","type":"uint256"},{"internalType":"uint256","name":"releaseTime","type":"uint256"},{"internalType":"address","name":"recipient","type":"address"},{"internalType":"bool","name":"withdrawn","type":"bool"}],"stateMutability":"view","type":"function"},{"inputs":[],"name":"nextLockId","outputs":[{"internalType":"uint256","name":"","type":"uint256"}],"stateMutability":"view","type":"function"},{"inputs":[{"internalType":"uint256","name":"lockId","type":"uint256"}],"name":"withdraw","outputs":[],"stateMutability":"nonpayable","type":"function"}],"evm":{"bytecode":{"linkReferences":{},"object":"608060405234801561001057600080fd5b5061133a806100206000396000f3fe60806040526004361061009c5760003560e01c80637f660b01116100645780637f660b011461019057806399a5d747146101bb578063a525ad3c146101f8578063de3794c414610223578063e1f1c4a71461024e578063f4dadc61146102795761009c565b806312065fe0146100a157806312e382b4146100cc5780632e1a7d4d146100fc5780635b15bfd9146101255780636518a0b314610165575b600080fd5b3480156100ad57600080fd5b506100b66102b9565b6040516100c39190610ac0565b60405180910390f35b6100e660048036038101906100e19190610b6a565b6102c1565b6040516100f39190610ac0565b60405180910390f35b34801561010857600080fd5b50610123600480360381019061011e9190610baa565b610507565b005b34801561013157600080fd5b5061014c60048036038101906101479190610baa565b610943565b60405161015c9493929190610c01565b60405180910390f35b34801561017157600080fd5b5061017a6109f4565b6040516101879190610ac0565b60405180910390f35b34801561019c57600080fd5b506101a56109fa565b6040516101b29190610c46565b60405180910390f35b3480156101c757600080fd5b506101e260048036038101906101dd9190610baa565b610a12565b6040516101ef9190610ac0565b60405180910390f35b34801561020457600080fd5b5061020d610a35565b60405161021a9190610ac0565b60405180910390f35b34801561022f57600080fd5b50610238610a3a565b6040516102459190610ac0565b60405180910390f35b34801561025a57600080fd5b50610263610a44565b6040516102709190610ac0565b60405180910390f35b34801561028557600080fd5b506102a0600480360381019061029b9190610baa565b610a4a565b6040516102b09493929190610c01565b60405180910390f35b600047905090565b60008073ffffffffffffffffffffffffffffffffffffffff168373ffffffffffffffffffffffffffffffffffffffff1603610331576040517f08c379a000000000000000000000000000000000000000000000000000000000815260040161032890610ce4565b60405180910390fd5b60003411610374576040517f08c379a000000000000000000000000000000000000000000000000000000000815260040161036b90610d76565b60405180910390fd5b4282116103b6576040517f08c379a00000000000000000000000000000000000000000000000000000000081526004016103ad90610e08565b60405180910390fd5b600160008154809291906103c990610e57565b91905055905060405180608001604052803481526020018381526020018473ffffffffffffffffffffffffffffffffffffffff16815260200160001515815250600080838152602001908152602001600020600082015181600001556020820151816001015560408201518160020160006101000a81548173ffffffffffffffffffffffffffffffffffffffff021916908373ffffffffffffffffffffffffffffffffffffffff16021790555060608201518160020160146101000a81548160ff0219169083151502179055509050508273ffffffffffffffffffffffffffffffffffffffff163373ffffffffffffffffffffffffffffffffffffffff16827fc8ecfcc7f5c26830bd86d62da1aa5c5185cc6968f5d53c29a1f7d6eb4583275634866040516104f9929190610e9f565b60405180910390a492915050565b80600154811061054c576040517f08c379a000000000000000000000000000000000000000000000000000000000815260040161054390610f14565b60405180910390fd5b60008082815260200190815260200160002060020160149054906101000a900460ff16156105af576040517f08c379a00000000000000000000000000000000000000000000000000000000081526004016105a690610fa6565b60405180910390fd5b600080600084815260200190815260200160002090508060020160009054906101000a900473ffffffffffffffffffffffffffffffffffffffff1673ffffffffffffffffffffffffffffffffffffffff163373ffffffffffffffffffffffffffffffffffffffff1614610657576040517f08c379a000000000000000000000000000000000000000000000000000000000815260040161064e90611038565b60405180910390fd5b806001015442101561069e576040517f08c379a0000000000000000000000000000000000000000000000000000000008152600401610695906110ca565b60405180910390fd5b60018160020160146101000a81548160ff02191690831515021790555060008160000154905060006127106064836106d691906110ea565b6106e0919061115b565b9050600081836106f0919061118c565b905060008211156107f5576000730788acb08de2f55b7f2086d1f45478a926921e2973ffffffffffffffffffffffffffffffffffffffff1683604051610735906111f1565b60006040518083038185875af1925050503d8060008114610772576040519150601f19603f3d011682016040523d82523d6000602084013e610777565b606091505b50509050806107bb576040517f08c379a00000000000000000000000000000000000000000000000000000000081526004016107b290611278565b60405180910390fd5b867faf7c505ee772ec188af7067e1f73db08ab028e3d564273442b907742b9c41fa0846040516107eb9190610ac0565b60405180910390a2505b60008460020160009054906101000a900473ffffffffffffffffffffffffffffffffffffffff1673ffffffffffffffffffffffffffffffffffffffff168260405161083f906111f1565b60006040518083038185875af1925050503d806000811461087c576040519150601f19603f3d011682016040523d82523d6000602084013e610881565b606091505b50509050806108c5576040517f08c379a00000000000000000000000000000000000000000000000000000000081526004016108bc906112e4565b60405180910390fd5b8460020160009054906101000a900473ffffffffffffffffffffffffffffffffffffffff1673ffffffffffffffffffffffffffffffffffffffff16877f3dbb1a26f29aef1264c12ca1285deb60cca5666d8b17100c7ea1602c0a4014f68486604051610932929190610e9f565b60405180910390a350505050505050565b600080600080600154851061098d576040517f08c379a000000000000000000000000000000000000000000000000000000000815260040161098490610f14565b60405180910390fd5b60008060008781526020019081526020016000209050806000015481600101548260020160009054906101000a900473ffffffffffffffffffffffffffffffffffffffff168360020160149054906101000a900460ff169450945094509450509193509193565b60015481565b730788acb08de2f55b7f2086d1f45478a926921e2981565b6000612710606483610a2491906110ea565b610a2e919061115b565b9050919050565b606481565b6000600154905090565b61271081565b60006020528060005260406000206000915090508060000154908060010154908060020160009054906101000a900473ffffffffffffffffffffffffffffffffffffffff16908060020160149054906101000a900460ff16905084565b6000819050919050565b610aba81610aa7565b82525050565b6000602082019050610ad56000830184610ab1565b92915050565b600080fd5b600073ffffffffffffffffffffffffffffffffffffffff82169050919050565b6000610b0b82610ae0565b9050919050565b610b1b81610b00565b8114610b2657600080fd5b50565b600081359050610b3881610b12565b92915050565b610b4781610aa7565b8114610b5257600080fd5b50565b600081359050610b6481610b3e565b92915050565b60008060408385031215610b8157610b80610adb565b5b6000610b8f85828601610b29565b9250506020610ba085828601610b55565b9150509250929050565b600060208284031215610bc057610bbf610adb565b5b6000610bce84828501610b55565b91505092915050565b610be081610b00565b82525050565b60008115159050919050565b610bfb81610be6565b82525050565b6000608082019050610c166000830187610ab1565b610c236020830186610ab1565b610c306040830185610bd7565b610c3d6060830184610bf2565b95945050505050565b6000602082019050610c5b6000830184610bd7565b92915050565b600082825260208201905092915050565b7f54696d654c6f636b57616c6c65743a20726563697069656e74206973207a657260008201527f6f20616464726573730000000000000000000000000000000000000000000000602082015250565b6000610cce602983610c61565b9150610cd982610c72565b604082019050919050565b60006020820190508181036000830152610cfd81610cc1565b9050919050565b7f54696d654c6f636b57616c6c65743a20616d6f756e74206d757374206265206760008201527f726561746572207468616e207a65726f00000000000000000000000000000000602082015250565b6000610d60603083610c61565b9150610d6b82610d04565b604082019050919050565b60006020820190508181036000830152610d8f81610d53565b9050919050565b7f54696d654c6f636b57616c6c65743a2072656c656173652074696d65206d757360008201527f7420626520696e20667574757265000000000000000000000000000000000000602082015250565b6000610df2602e83610c61565b9150610dfd82610d96565b604082019050919050565b60006020820190508181036000830152610e2181610de5565b9050919050565b7f4e487b7100000000000000000000000000000000000000000000000000000000600052601160045260246000fd5b6000610e6282610aa7565b91507fffffffffffffffffffffffffffffffffffffffffffffffffffffffffffffffff8203610e9457610e93610e28565b5b600182019050919050565b6000604082019050610eb46000830185610ab1565b610ec16020830184610ab1565b9392505050565b7f54696d654c6f636b57616c6c65743a20696e76616c6964206c6f636b20696400600082015250565b6000610efe601f83610c61565b9150610f0982610ec8565b602082019050919050565b60006020820190508181036000830152610f2d81610ef1565b9050919050565b7f54696d654c6f636b57616c6c65743a2066756e647320616c726561647920776960008201527f7468647261776e00000000000000000000000000000000000000000000000000602082015250565b6000610f90602783610c61565b9150610f9b82610f34565b604082019050919050565b60006020820190508181036000830152610fbf81610f83565b9050919050565b7f54696d654c6f636b57616c6c65743a2063616c6c6572206973206e6f7420746860008201527f6520726563697069656e74000000000000000000000000000000000000000000602082015250565b6000611022602b83610c61565b915061102d82610fc6565b604082019050919050565b6000602082019050818103600083015261105181611015565b9050919050565b7f54696d654c6f636b57616c6c65743a2072656c656173652074696d65206e6f7460008201527f2072656163686564000000000000000000000000000000000000000000000000602082015250565b60006110b4602883610c61565b91506110bf82611058565b604082019050919050565b600060208201905081810360008301526110e3816110a7565b9050919050565b60006110f582610aa7565b915061110083610aa7565b925082820261110e81610aa7565b9150828204841483151761112557611124610e28565b5b5092915050565b7f4e487b7100000000000000000000000000000000000000000000000000000000600052601260045260246000fd5b600061116682610aa7565b915061117183610aa7565b9250826111815761118061112c565b5b828204905092915050565b600061119782610aa7565b91506111a283610aa7565b92508282039050818111156111ba576111b9610e28565b5b92915050565b600081905092915050565b50565b60006111db6000836111c0565b91506111e6826111cb565b600082019050919050565b60006111fc826111ce565b9150819050919050565b7f54696d654c6f636b57616c6c65743a20666565207472616e736665722066616960008201527f6c65640000000000000000000000000000000000000000000000000000000000602082015250565b6000611262602383610c61565b915061126d82611206565b604082019050919050565b6000602082019050818103600083015261129181611255565b9050919050565b7f54696d654c6f636b57616c6c65743a207472616e73666572206661696c656400600082015250565b60006112ce601f83610c61565b91506112d982611298565b602082019050919050565b600060208201905081810360008301526112fd816112c1565b905091905056fea26469706673582212209f2e51b6d5360384cb41299c32bc67cb7667284fcd329812bc67f8043c6efbfb64736f6c63430008140033","opcodes":"PUSH1 0x80 PUSH1 0x40 MSTORE CALLVALUE DUP1 ISZERO PUSH2 0x10 JUMPI PUSH1 0x0 DUP1 REVERT JUMPDEST POP PUSH2 0x133A DUP1 PUSH2 0x20 PUSH1 0x0 CODECOPY PUSH1 0x0 RETURN INVALID PUSH1 0x80 PUSH1 0x40 MSTORE PUSH1 0x4 CALLDATASIZE LT PUSH2 0x9C JUMPI PUSH1 0x0 CALLDATALOAD PUSH1 0xE0 SHR DUP1 PUSH4 0x7F660B01 GT PUSH2 0x64 JUMPI DUP1 PUSH4 0x7F660B01 EQ PUSH2 0x190 JUMPI DUP1 PUSH4 0x99A5D747 EQ PUSH2 0x1BB JUMPI DUP1 PUSH4 0xA525AD3C EQ PUSH2 0x1F8 JUMPI DUP1 PUSH4 0xDE3794C4 EQ PUSH2 0x223 JUMPI DUP1 PUSH4 0xE1F1C4A7 EQ PUSH2 0x24E JUMPI DUP1 PUSH4 0xF4DADC61 EQ PUSH2 0x279 JUMPI PUSH2 0x9C JUMP JUMPDEST DUP1 PUSH4 0x12065FE0 EQ PUSH2 0xA1 JUMPI DUP1 PUSH4 0x12E382B4 EQ PUSH2 0xCC JUMPI DUP1 PUSH4 0x2E1A7D4D EQ PUSH2 0xFC JUMPI DUP1 PUSH4 0x5B15BFD9 EQ PUSH2 0x125 JUMPI DUP1 PUSH4 0x6518A0B3 EQ PUSH2 0x165 JUMPI JUMPDEST PUSH1 0x0 DUP1 REVERT JUMPDEST CALLVALUE DUP1 ISZERO PUSH2 0xAD JUMPI PUSH1 0x0 DUP1 REVERT JUMPDEST POP PUSH2 0xB6 PUSH2 0x2B9 JUMP JUMPDEST PUSH1 0x40 MLOAD PUSH2 0xC3 SWAP2 SWAP1 PUSH2 0xAC0 JUMP JUMPDEST PUSH1 0x40 MLOAD DUP1 SWAP2 SUB SWAP1 RETURN JUMPDEST PUSH2 0xE6 PUSH1 0x4 DUP1 CALLDATASIZE SUB DUP2 ADD SWAP1 PUSH2 0xE1 SWAP2 SWAP1 PUSH2 0xB6A JUMP JUMPDEST PUSH2 0x2C1 JUMP JUMPDEST PUSH1 0x40 MLOAD PUSH2 0xF3 SWAP2 SWAP1 PUSH2 0xAC0 JUMP JUMPDEST PUSH1 0x40 MLOAD DUP1 SWAP2 SUB SWAP1 RETURN JUMPDEST CALLVALUE DUP1 ISZERO PUSH2 0x108 JUMPI PUSH1 0x0 DUP1 REVERT JUMPDEST POP PUSH2 0x123 PUSH1 0x4 DUP1 CALLDATASIZE SUB DUP2 ADD SWAP1 PUSH2 0x11E SWAP2 SWAP1 PUSH2 0xBAA JUMP JUMPDEST PUSH2 0x507 JUMP JUMPDEST STOP JUMPDEST CALLVALUE DUP1 ISZERO PUSH2 0x131 JUMPI PUSH1 0x0 DUP1 REVERT JUMPDEST POP PUSH2 0x14C PUSH1 0x4 DUP1 CALLDATASIZE SUB DUP2 ADD SWAP1 PUSH2 0x147 SWAP2 SWAP1 PUSH2 0xBAA JUMP JUMPDEST PUSH2 0x943 JUMP JUMPDEST PUSH1 0x40 MLOAD PUSH2 0x15C SWAP5 SWAP4 SWAP3 SWAP2 SWAP1 PUSH2 0xC01 JUMP JUMPDEST PUSH1 0x40 MLOAD DUP1 SWAP2 SUB SWAP1 RETURN JUMPDEST CALLVALUE DUP1 ISZERO PUSH2 0x171 JUMPI PUSH1 0x0 DUP1 REVERT JUMPDEST POP PUSH2 0x17A PUSH2 0x9F4 JUMP JUMPDEST PUSH1 0x40 MLOAD PUSH2 0x187 SWAP2 SWAP1 PUSH2 0xAC0 JUMP JUMPDEST PUSH1 0x40 MLOAD DUP1 SWAP2 SUB SWAP1 RETURN JUMPDEST CALLVALUE DUP1 ISZERO PUSH2 0x19C JUMPI PUSH1 0x0 DUP1 REVERT JUMPDEST POP PUSH2 0x1A5 PUSH2 0x9FA JUMP JUMPDEST PUSH1 0x40 MLOAD PUSH2 0x1B2 SWAP2 SWAP1 PUSH2 0xC46 JUMP JUMPDEST PUSH1 0x40 MLOAD DUP1 SWAP2 SUB SWAP1 RETURN JUMPDEST CALLVALUE DUP1 ISZERO PUSH2 0x1C7 JUMPI PUSH1 0x0 DUP1 REVERT JUMPDEST POP PUSH2 0x1E2 PUSH1 0x4 DUP1 CALLDATASIZE SUB DUP2 ADD SWAP1 PUSH2 0x1DD SWAP2 SWAP1 PUSH2 0xBAA JUMP JUMPDEST PUSH2 0xA12 JUMP JUMPDEST PUSH1 0x40 MLOAD PUSH2 0x1EF SWAP2 SWAP1 PUSH2 0xAC0 JUMP JUMPDEST PUSH1 0x40 MLOAD DUP1 SWAP2 SUB SWAP1 RETURN JUMPDEST CALLVALUE DUP1 ISZERO PUSH2 0x204 JUMPI PUSH1 0x0 DUP1 REVERT JUMPDEST POP PUSH2 0x20D PUSH2 0xA35 JUMP JUMPDEST PUSH1 0x40 MLOAD PUSH2 0x21A SWAP2 SWAP1 PUSH2 0xAC0 JUMP JUMPDEST PUSH1 0x40 MLOAD DUP1 SWAP2 SUB SWAP1 RETURN JUMPDEST CALLVALUE DUP1 ISZERO PUSH2 0x22F JUMPI PUSH1 0x0 DUP1 REVERT JUMPDEST POP PUSH2 0x238 PUSH2 0xA3A JUMP JUMPDEST PUSH1 0x40 MLOAD PUSH2 0x245 SWAP2 SWAP1 PUSH2 0xAC0 JUMP JUMPDEST PUSH1 0x40 MLOAD DUP1 SWAP2 SUB SWAP1 RETURN JUMPDEST CALLVALUE DUP1 ISZERO PUSH2 0x25A JUMPI PUSH1 0x0 DUP1 REVERT JUMPDEST POP PUSH2 0x263 PUSH2 0xA44 JUMP JUMPDEST PUSH1 0x40 MLOAD PUSH2 0x270 SWAP2 SWAP1 PUSH2 0xAC0 JUMP JUMPDEST PUSH1 0x40 MLOAD DUP1 SWAP2 SUB SWAP1 RETURN JUMPDEST CALLVALUE DUP1 ISZERO PUSH2 0x285 JUMPI PUSH1 0x0 DUP1 REVERT JUMPDEST POP PUSH2 0x2A0 PUSH1 0x4 DUP1 CALLDATASIZE SUB DUP2 ADD SWAP1 PUSH2 0x29B SWAP2 SWAP1 PUSH2 0xBAA JUMP JUMPDEST PUSH2 0xA4A JUMP JUMPDEST PUSH1 0x40 MLOAD PUSH2 0x2B0 SWAP5 SWAP4 SWAP3 SWAP2 SWAP1 PUSH2 0xC01 JUMP JUMPDEST PUSH1 0x40 MLOAD DUP1 SWAP2 SUB SWAP1 RETURN JUMPDEST PUSH1 0x0 SELFBALANCE SWAP1 POP SWAP1 JUMP JUMPDEST PUSH1 0x0 DUP1 PUSH20 0xFFFFFFFFFFFFFFFFFFFFFFFFFFFFFFFFFFFFFFFF AND DUP4 PUSH20 0xFFFFFFFFFFFFFFFFFFFFFFFFFFFFFFFFFFFFFFFF AND SUB PUSH2 0x331 JUMPI PUSH1 0x40 MLOAD PUSH32 0x8C379A000000000000000000000000000000000000000000000000000000000 DUP2 MSTORE PUSH1 0x4 ADD PUSH2 0x328 SWAP1 PUSH2 0xCE4 JUMP JUMPDEST PUSH1 0x40 MLOAD DUP1 SWAP2 SUB SWAP1 REVERT JUMPDEST PUSH1 0x0 CALLVALUE GT PUSH2 0x374 JUMPI PUSH1 0x40 MLOAD PUSH32 0x8C379A000000000000000000000000000000000000000000000000000000000 DUP2 MSTORE PUSH1 0x4 ADD PUSH2 0x36B SWAP1 PUSH2 0xD76 JUMP JUMPDEST PUSH1 0x40 MLOAD DUP1 SWAP2 SUB SWAP1 REVERT JUMPDEST TIMESTAMP DUP3 GT PUSH2 0x3B6 JUMPI PUSH1 0x40 MLOAD PUSH32 0x8C379A000000000000000000000000000000000000000000000000000000000 DUP2 MSTORE PUSH1 0x4 ADD PUSH2 0x3AD SWAP1 PUSH2 0xE08 JUMP JUMPDEST PUSH1 0x40 MLOAD DUP1 SWAP2 SUB SWAP1 REVERT JUMPDEST PUSH1 0x1 PUSH1 0x0 DUP2 SLOAD DUP1 SWAP3 SWAP2 SWAP1 PUSH2 0x3C9 SWAP1 PUSH2 0xE57 JUMP JUMPDEST SWAP2 SWAP1 POP SSTORE SWAP1 POP PUSH1 0x40 MLOAD DUP1 PUSH1 0x80 ADD PUSH1 0x40 MSTORE DUP1 CALLVALUE DUP2 MSTORE PUSH1 0x20 ADD DUP4 DUP2 MSTORE PUSH1 0x20 ADD DUP5 PUSH20 0xFFFFFFFFFFFFFFFFFFFFFFFFFFFFFFFFFFFFFFFF AND DUP2 MSTORE PUSH1 0x20 ADD PUSH1 0x0 ISZERO ISZERO DUP2 MSTORE POP PUSH1 0x0 DUP1 DUP4 DUP2 MSTORE PUSH1 0x20 ADD SWAP1 DUP2 MSTORE PUSH1 0x20 ADD PUSH1 0x0 KECCAK256 PUSH1 0x0 DUP3 ADD MLOAD DUP2 PUSH1 0x0 ADD SSTORE PUSH1 0x20 DUP3 ADD MLOAD DUP2 PUSH1 0x1 ADD SSTORE PUSH1 0x40 DUP3 ADD MLOAD DUP2 PUSH1 0x2 ADD PUSH1 0x0 PUSH2 0x100 EXP DUP2 SLOAD DUP2 PUSH20 0xFFFFFFFFFFFFFFFFFFFFFFFFFFFFFFFFFFFFFFFF MUL NOT AND SWAP1 DUP4 PUSH20 0xFFFFFFFFFFFFFFFFFFFFFFFFFFFFFFFFFFFFFFFF AND MUL OR SWAP1 SSTORE POP PUSH1 0x60 DUP3 ADD MLOAD DUP2 PUSH1 0x2 ADD PUSH1 0x14 PUSH2 0x100 EXP DUP2 SLOAD DUP2 PUSH1 0xFF MUL NOT AND SWAP1 DUP4 ISZERO ISZERO MUL OR SWAP1 SSTORE POP SWAP1 POP POP DUP3 PUSH20 0xFFFFFFFFFFFFFFFFFFFFFFFFFFFFFFFFFFFFFFFF AND CALLER PUSH20 0xFFFFFFFFFFFFFFFFFFFFFFFFFFFFFFFFFFFFFFFF AND DUP3 PUSH32 0xC8ECFCC7F5C26830BD86D62DA1AA5C5185CC6968F5D53C29A1F7D6EB45832756 CALLVALUE DUP7 PUSH1 0x40 MLOAD PUSH2 0x4F9 SWAP3 SWAP2 SWAP1 PUSH2 0xE9F JUMP JUMPDEST PUSH1 0x40 MLOAD DUP1 SWAP2 SUB SWAP1 LOG4 SWAP3 SWAP2 POP POP JUMP JUMPDEST DUP1 PUSH1 0x1 SLOAD DUP2 LT PUSH2 0x54C JUMPI PUSH1 0x40 MLOAD PUSH32 0x8C379A000000000000000000000000000000000000000000000000000000000 DUP2 MSTORE PUSH1 0x4 ADD PUSH2 0x543 SWAP1 PUSH2 0xF14 JUMP JUMPDEST PUSH1 0x40 MLOAD DUP1 SWAP2 SUB SWAP1 REVERT JUMPDEST PUSH1 0x0 DUP1 DUP3 DUP2 MSTORE PUSH1 0x20 ADD SWAP1 DUP2 MSTORE PUSH1 0x20 ADD PUSH1 0x0 KECCAK256 PUSH1 0x2 ADD PUSH1 0x14 SWAP1 SLOAD SWAP1 PUSH2 0x100 EXP SWAP1 DIV PUSH1 0xFF AND ISZERO PUSH2 0x5AF JUMPI PUSH1 0x40 MLOAD PUSH32 0x8C379A000000000000000000000000000000000000000000000000000000000 DUP2 MSTORE PUSH1 0x4 ADD PUSH2 0x5A6 SWAP1 PUSH2 0xFA6 JUMP JUMPDEST PUSH1 0x40 MLOAD DUP1 SWAP2 SUB SWAP1 REVERT JUMPDEST PUSH1 0x0 DUP1 PUSH1 0x0 DUP5 DUP2 MSTORE PUSH1 0x20 ADD SWAP1 DUP2 MSTORE PUSH1 0x20 ADD PUSH1 0x0 KECCAK256 SWAP1 POP DUP1 PUSH1 0x2 ADD PUSH1 0x0 SWAP1 SLOAD SWAP1 PUSH2 0x100 EXP SWAP1 DIV PUSH20 0xFFFFFFFFFFFFFFFFFFFFFFFFFFFFFFFFFFFFFFFF AND PUSH20 0xFFFFFFFFFFFFFFFFFFFFFFFFFFFFFFFFFFFFFFFF AND CALLER PUSH20 0xFFFFFFFFFFFFFFFFFFFFFFFFFFFFFFFFFFFFFFFF AND EQ PUSH2 0x657 JUMPI PUSH1 0x40 MLOAD PUSH32 0x8C379A000000000000000000000000000000000000000000000000000000000 DUP2 MSTORE PUSH1 0x4 ADD PUSH2 0x64E SWAP1 PUSH2 0x1038 JUMP JUMPDEST PUSH1 0x40 MLOAD DUP1 SWAP2 SUB SWAP1 REVERT JUMPDEST DUP1 PUSH1 0x1 ADD SLOAD TIMESTAMP LT ISZERO PUSH2 0x69E JUMPI PUSH1 0x40 MLOAD PUSH32 0x8C379A000000000000000000000000000000000000000000000000000000000 DUP2 MSTORE PUSH1 0x4 ADD PUSH2 0x695 SWAP1 PUSH2 0x10CA JUMP JUMPDEST PUSH1 0x40 MLOAD DUP1 SWAP2 SUB SWAP1 REVERT JUMPDEST PUSH1 0x1 DUP2 PUSH1 0x2 ADD PUSH1 0x14 PUSH2 0x100 EXP DUP2 SLOAD DUP2 PUSH1 0xFF MUL NOT AND SWAP1 DUP4 ISZERO ISZERO MUL OR SWAP1 SSTORE POP PUSH1 0x0 DUP2 PUSH1 0x0 ADD SLOAD SWAP1 POP PUSH1 0x0 PUSH2 0x2710 PUSH1 0x64 DUP4 PUSH2 0x6D6 SWAP2 SWAP1 PUSH2 0x10EA JUMP JUMPDEST PUSH2 0x6E0 SWAP2 SWAP1 PUSH2 0x115B JUMP JUMPDEST SWAP1 POP PUSH1 0x0 DUP2 DUP4 PUSH2 0x6F0 SWAP2 SWAP1 PUSH2 0x118C JUMP JUMPDEST SWAP1 POP PUSH1 0x0 DUP3 GT ISZERO PUSH2 0x7F5 JUMPI PUSH1 0x0 PUSH20 0x788ACB08DE2F55B7F2086D1F45478A926921E29 PUSH20 0xFFFFFFFFFFFFFFFFFFFFFFFFFFFFFFFFFFFFFFFF AND DUP4 PUSH1 0x40 MLOAD PUSH2 0x735 SWAP1 PUSH2 0x11F1 JUMP JUMPDEST PUSH1 0x0 PUSH1 0x40 MLOAD DUP1 DUP4 SUB DUP2 DUP6 DUP8 GAS CALL SWAP3 POP POP POP RETURNDATASIZE DUP1 PUSH1 0x0 DUP2 EQ PUSH2 0x772 JUMPI PUSH1 0x40 MLOAD SWAP2 POP PUSH1 0x1F NOT PUSH1 0x3F RETURNDATASIZE ADD AND DUP3 ADD PUSH1 0x40 MSTORE RETURNDATASIZE DUP3 MSTORE RETURNDATASIZE PUSH1 0x0 PUSH1 0x20 DUP5 ADD RETURNDATACOPY PUSH2 0x777 JUMP JUMPDEST PUSH1 0x60 SWAP2 POP JUMPDEST POP POP SWAP1 POP DUP1 PUSH2 0x7BB JUMPI PUSH1 0x40 MLOAD PUSH32 0x8C379A000000000000000000000000000000000000000000000000000000000 DUP2 MSTORE PUSH1 0x4 ADD PUSH2 0x7B2 SWAP1 PUSH2 0x1278 JUMP JUMPDEST PUSH1 0x40 MLOAD DUP1 SWAP2 SUB SWAP1 REVERT JUMPDEST DUP7 PUSH32 0xAF7C505EE772EC188AF7067E1F73DB08AB028E3D564273442B907742B9C41FA0 DUP5 PUSH1 0x40 MLOAD PUSH2 0x7EB SWAP2 SWAP1 PUSH2 0xAC0 JUMP JUMPDEST PUSH1 0x40 MLOAD DUP1 SWAP2 SUB SWAP1 LOG2 POP JUMPDEST PUSH1 0x0 DUP5 PUSH1 0x2 ADD PUSH1 0x0 SWAP1 SLOAD SWAP1 PUSH2 0x100 EXP SWAP1 DIV PUSH20 0xFFFFFFFFFFFFFFFFFFFFFFFFFFFFFFFFFFFFFFFF AND PUSH20 0xFFFFFFFFFFFFFFFFFFFFFFFFFFFFFFFFFFFFFFFF AND DUP3 PUSH1 0x40 MLOAD PUSH2 0x83F SWAP1 PUSH2 0x11F1 JUMP JUMPDEST PUSH1 0x0 PUSH1 0x40 MLOAD DUP1 DUP4 SUB DUP2 DUP6 DUP8 GAS CALL SWAP3 POP POP POP RETURNDATASIZE DUP1 PUSH1 0x0 DUP2 EQ PUSH2 0x87C JUMPI PUSH1 0x40 MLOAD SWAP2 POP PUSH1 0x1F NOT PUSH1 0x3F RETURNDATASIZE ADD AND DUP3 ADD PUSH1 0x40 MSTORE RETURNDATASIZE DUP3 MSTORE RETURNDATASIZE PUSH1 0x0 PUSH1 0x20 DUP5 ADD RETURNDATACOPY PUSH2 0x881 JUMP JUMPDEST PUSH1 0x60 SWAP2 POP JUMPDEST POP POP SWAP1 POP DUP1 PUSH2 0x8C5 JUMPI PUSH1 0x40 MLOAD PUSH32 0x8C379A000000000000000000000000000000000000000000000000000000000 DUP2 MSTORE PUSH1 0x4 ADD PUSH2 0x8BC SWAP1 PUSH2 0x12E4 JUMP JUMPDEST PUSH1 0x40 MLOAD DUP1 SWAP2 SUB SWAP1 REVERT JUMPDEST DUP5 PUSH1 0x2 ADD PUSH1 0x0 SWAP1 SLOAD SWAP1 PUSH2 0x100 EXP SWAP1 DIV PUSH20 0xFFFFFFFFFFFFFFFFFFFFFFFFFFFFFFFFFFFFFFFF AND PUSH20 0xFFFFFFFFFFFFFFFFFFFFFFFFFFFFFFFFFFFFFFFF AND DUP8 PUSH32 0x3DBB1A26F29AEF1264C12CA1285DEB60CCA5666D8B17100C7EA1602C0A4014F6 DUP5 DUP7 PUSH1 0x40 MLOAD PUSH2 0x932 SWAP3 SWAP2 SWAP1 PUSH2 0xE9F JUMP JUMPDEST PUSH1 0x40 MLOAD DUP1 SWAP2 SUB SWAP1 LOG3 POP POP POP POP POP POP POP JUMP JUMPDEST PUSH1 0x0 DUP1 PUSH1 0x0 DUP1 PUSH1 0x1 SLOAD DUP6 LT PUSH2 0x98D JUMPI PUSH1 0x40 MLOAD PUSH32 0x8C379A000000000000000000000000000000000000000000000000000000000 DUP2 MSTORE PUSH1 0x4 ADD PUSH2 0x984 SWAP1 PUSH2 0xF14 JUMP JUMPDEST PUSH1 0x40 MLOAD DUP1 SWAP2 SUB SWAP1 REVERT JUMPDEST PUSH1 0x0 DUP1 PUSH1 0x0 DUP8 DUP2 MSTORE PUSH1 0x20 ADD SWAP1 DUP2 MSTORE PUSH1 0x20 ADD PUSH1 0x0 KECCAK256 SWAP1 POP DUP1 PUSH1 0x0 ADD SLOAD DUP2 PUSH1 0x1 ADD SLOAD DUP3 PUSH1 0x2 ADD PUSH1 0x0 SWAP1 SLOAD SWAP1 PUSH2 0x100 EXP SWAP1 DIV PUSH20 0xFFFFFFFFFFFFFFFFFFFFFFFFFFFFFFFFFFFFFFFF AND DUP4 PUSH1 0x2 ADD PUSH1 0x14 SWAP1 SLOAD SWAP1 PUSH2 0x100 EXP SWAP1 DIV PUSH1 0xFF AND SWAP5 POP SWAP5 POP SWAP5 POP SWAP5 POP POP SWAP2 SWAP4 POP SWAP2 SWAP4 JUMP JUMPDEST PUSH1 0x1 SLOAD DUP2 JUMP JUMPDEST PUSH20 0x788ACB08DE2F55B7F2086D1F45478A926921E29 DUP2 JUMP JUMPDEST PUSH1 0x0 PUSH2 0x2710 PUSH1 0x64 DUP4 PUSH2 0xA24 SWAP2 SWAP1 PUSH2 0x10EA JUMP JUMPDEST PUSH2 0xA2E SWAP2 SWAP1 PUSH2 0x115B JUMP JUMPDEST SWAP1 POP SWAP2 SWAP1 POP JUMP JUMPDEST PUSH1 0x64 DUP2 JUMP JUMPDEST PUSH1 0x0 PUSH1 0x1 SLOAD SWAP1 POP SWAP1 JUMP JUMPDEST PUSH2 0x2710 DUP2 JUMP JUMPDEST PUSH1 0x0 PUSH1 0x20 MSTORE DUP1 PUSH1 0x0 MSTORE PUSH1 0x40 PUSH1 0x0 KECCAK256 PUSH1 0x0 SWAP2 POP SWAP1 POP DUP1 PUSH1 0x0 ADD SLOAD SWAP1 DUP1 PUSH1 0x1 ADD SLOAD SWAP1 DUP1 PUSH1 0x2 ADD PUSH1 0x0 SWAP1 SLOAD SWAP1 PUSH2 0x100 EXP SWAP1 DIV PUSH20 0xFFFFFFFFFFFFFFFFFFFFFFFFFFFFFFFFFFFFFFFF AND SWAP1 DUP1 PUSH1 0x2 ADD PUSH1 0x14 SWAP1 SLOAD SWAP1 PUSH2 0x100 EXP SWAP1 DIV PUSH1 0xFF AND SWAP1 POP DUP5 JUMP JUMPDEST PUSH1 0x0 DUP2 SWAP1 POP SWAP2 SWAP1 POP JUMP JUMPDEST PUSH2 0xABA DUP2 PUSH2 0xAA7 JUMP JUMPDEST DUP3 MSTORE POP POP JUMP JUMPDEST PUSH1 0x0 PUSH1 0x20 DUP3 ADD SWAP1 POP PUSH2 0xAD5 PUSH1 0x0 DUP4 ADD DUP5 PUSH2 0xAB1 JUMP JUMPDEST SWAP3 SWAP2 POP POP JUMP JUMPDEST PUSH1 0x0 DUP1 REVERT JUMPDEST PUSH1 0x0 PUSH20 0xFFFFFFFFFFFFFFFFFFFFFFFFFFFFFFFFFFFFFFFF DUP3 AND SWAP1 POP SWAP2 SWAP1 POP JUMP JUMPDEST PUSH1 0x0 PUSH2 0xB0B DUP3 PUSH2 0xAE0 JUMP JUMPDEST SWAP1 POP SWAP2 SWAP1 POP JUMP JUMPDEST PUSH2 0xB1B DUP2 PUSH2 0xB00 JUMP JUMPDEST DUP2 EQ PUSH2 0xB26 JUMPI PUSH1 0x0 DUP1 REVERT JUMPDEST POP JUMP JUMPDEST PUSH1 0x0 DUP2 CALLDATALOAD SWAP1 POP PUSH2 0xB38 DUP2 PUSH2 0xB12 JUMP JUMPDEST SWAP3 SWAP2 POP POP JUMP JUMPDEST PUSH2 0xB47 DUP2 PUSH2 0xAA7 JUMP JUMPDEST DUP2 EQ PUSH2 0xB52 JUMPI PUSH1 0x0 DUP1 REVERT JUMPDEST POP JUMP JUMPDEST PUSH1 0x0 DUP2 CALLDATALOAD SWAP1 POP PUSH2 0xB64 DUP2 PUSH2 0xB3E JUMP JUMPDEST SWAP3 SWAP2 POP POP JUMP JUMPDEST PUSH1 0x0 DUP1 PUSH1 0x40 DUP4 DUP6 SUB SLT ISZERO PUSH2 0xB81 JUMPI PUSH2 0xB80 PUSH2 0xADB JUMP JUMPDEST JUMPDEST PUSH1 0x0 PUSH2 0xB8F DUP6 DUP3 DUP7 ADD PUSH2 0xB29 JUMP JUMPDEST SWAP3 POP POP PUSH1 0x20 PUSH2 0xBA0 DUP6 DUP3 DUP7 ADD PUSH2 0xB55 JUMP JUMPDEST SWAP2 POP POP SWAP3 POP SWAP3 SWAP1 POP JUMP JUMPDEST PUSH1 0x0 PUSH1 0x20 DUP3 DUP5 SUB SLT ISZERO PUSH2 0xBC0 JUMPI PUSH2 0xBBF PUSH2 0xADB JUMP JUMPDEST JUMPDEST PUSH1 0x0 PUSH2 0xBCE DUP5 DUP3 DUP6 ADD PUSH2 0xB55 JUMP JUMPDEST SWAP2 POP POP SWAP3 SWAP2 POP POP JUMP JUMPDEST PUSH2 0xBE0 DUP2 PUSH2 0xB00 JUMP JUMPDEST DUP3 MSTORE POP POP JUMP JUMPDEST PUSH1 0x0 DUP2 ISZERO ISZERO SWAP1 POP SWAP2 SWAP1 POP JUMP JUMPDEST PUSH2 0xBFB DUP2 PUSH2 0xBE6 JUMP JUMPDEST DUP3 MSTORE POP POP JUMP JUMPDEST PUSH1 0x0 PUSH1 0x80 DUP3 ADD SWAP1 POP PUSH2 0xC16 PUSH1 0x0 DUP4 ADD DUP8 PUSH2 0xAB1 JUMP JUMPDEST PUSH2 0xC23 PUSH1 0x20 DUP4 ADD DUP7 PUSH2 0xAB1 JUMP JUMPDEST PUSH2 0xC30 PUSH1 0x40 DUP4 ADD DUP6 PUSH2 0xBD7 JUMP JUMPDEST PUSH2 0xC3D PUSH1 0x60 DUP4 ADD DUP5 PUSH2 0xBF2 JUMP JUMPDEST SWAP6 SWAP5 POP POP POP POP POP JUMP JUMPDEST PUSH1 0x0 PUSH1 0x20 DUP3 ADD SWAP1 POP PUSH2 0xC5B PUSH1 0x0 DUP4 ADD DUP5 PUSH2 0xBD7 JUMP JUMPDEST SWAP3 SWAP2 POP POP JUMP JUMPDEST PUSH1 0x0 DUP3 DUP3 MSTORE PUSH1 0x20 DUP3 ADD SWAP1 POP SWAP3 SWAP2 POP POP JUMP JUMPDEST PUSH32 0x54696D654C6F636B57616C6C65743A20726563697069656E74206973207A6572 PUSH1 0x0 DUP3 ADD MSTORE PUSH32 0x6F20616464726573730000000000000000000000000000000000000000000000 PUSH1 0x20 DUP3 ADD MSTORE POP JUMP JUMPDEST PUSH1 0x0 PUSH2 0xCCE PUSH1 0x29 DUP4 PUSH2 0xC61 JUMP JUMPDEST SWAP2 POP PUSH2 0xCD9 DUP3 PUSH2 0xC72 JUMP JUMPDEST PUSH1 0x40 DUP3 ADD SWAP1 POP SWAP2 SWAP1 POP JUMP JUMPDEST PUSH1 0x0 PUSH1 0x20 DUP3 ADD SWAP1 POP DUP2 DUP2 SUB PUSH1 0x0 DUP4 ADD MSTORE PUSH2 0xCFD DUP2 PUSH2 0xCC1 JUMP JUMPDEST SWAP1 POP SWAP2 SWAP1 POP JUMP JUMPDEST PUSH32 0x54696D654C6F636B57616C6C65743A20616D6F756E74206D7573742062652067 PUSH1 0x0 DUP3 ADD MSTORE PUSH32 0x726561746572207468616E207A65726F00000000000000000000000000000000 PUSH1 0x20 DUP3 ADD MSTORE POP JUMP JUMPDEST PUSH1 0x0 PUSH2 0xD60 PUSH1 0x30 DUP4 PUSH2 0xC61 JUMP JUMPDEST SWAP2 POP PUSH2 0xD6B DUP3 PUSH2 0xD04 JUMP JUMPDEST PUSH1 0x40 DUP3 ADD SWAP1 POP SWAP2 SWAP1 POP JUMP JUMPDEST PUSH1 0x0 PUSH1 0x20 DUP3 ADD SWAP1 POP DUP2 DUP2 SUB PUSH1 0x0 DUP4 ADD MSTORE PUSH2 0xD8F DUP2 PUSH2 0xD53 JUMP JUMPDEST SWAP1 POP SWAP2 SWAP1 POP JUMP JUMPDEST PUSH32 0x54696D654C6F636B57616C6C65743A2072656C656173652074696D65206D7573 PUSH1 0x0 DUP3 ADD MSTORE PUSH32 0x7420626520696E20667574757265000000000000000000000000000000000000 PUSH1 0x20 DUP3 ADD MSTORE POP JUMP JUMPDEST PUSH1 0x0 PUSH2 0xDF2 PUSH1 0x2E DUP4 PUSH2 0xC61 JUMP JUMPDEST SWAP2 POP PUSH2 0xDFD DUP3 PUSH2 0xD96 JUMP JUMPDEST PUSH1 0x40 DUP3 ADD SWAP1 POP SWAP2 SWAP1 POP JUMP JUMPDEST PUSH1 0x0 PUSH1 0x20 DUP3 ADD SWAP1 POP DUP2 DUP2 SUB PUSH1 0x0 DUP4 ADD MSTORE PUSH2 0xE21 DUP2 PUSH2 0xDE5 JUMP JUMPDEST SWAP1 POP SWAP2 SWAP1 POP JUMP JUMPDEST PUSH32 0x4E487B7100000000000000000000000000000000000000000000000000000000 PUSH1 0x0 MSTORE PUSH1 0x11 PUSH1 0x4 MSTORE PUSH1 0x24 PUSH1 0x0 REVERT JUMPDEST PUSH1 0x0 PUSH2 0xE62 DUP3 PUSH2 0xAA7 JUMP JUMPDEST SWAP2 POP PUSH32 0xFFFFFFFFFFFFFFFFFFFFFFFFFFFFFFFFFFFFFFFFFFFFFFFFFFFFFFFFFFFFFFFF DUP3 SUB PUSH2 0xE94 JUMPI PUSH2 0xE93 PUSH2 0xE28 JUMP JUMPDEST JUMPDEST PUSH1 0x1 DUP3 ADD SWAP1 POP SWAP2 SWAP1 POP JUMP JUMPDEST PUSH1 0x0 PUSH1 0x40 DUP3 ADD SWAP1 POP PUSH2 0xEB4 PUSH1 0x0 DUP4 ADD DUP6 PUSH2 0xAB1 JUMP JUMPDEST PUSH2 0xEC1 PUSH1 0x20 DUP4 ADD DUP5 PUSH2 0xAB1 JUMP JUMPDEST SWAP4 SWAP3 POP POP POP JUMP JUMPDEST PUSH32 0x54696D654C6F636B57616C6C65743A20696E76616C6964206C6F636B20696400 PUSH1 0x0 DUP3 ADD MSTORE POP JUMP JUMPDEST PUSH1 0x0 PUSH2 0xEFE PUSH1 0x1F DUP4 PUSH2 0xC61 JUMP JUMPDEST SWAP2 POP PUSH2 0xF09 DUP3 PUSH2 0xEC8 JUMP JUMPDEST PUSH1 0x20 DUP3 ADD SWAP1 POP SWAP2 SWAP1 POP JUMP JUMPDEST PUSH1 0x0 PUSH1 0x20 DUP3 ADD SWAP1 POP DUP2 DUP2 SUB PUSH1 0x0 DUP4 ADD MSTORE PUSH2 0xF2D DUP2 PUSH2 0xEF1 JUMP JUMPDEST SWAP1 POP SWAP2 SWAP1 POP JUMP JUMPDEST PUSH32 0x54696D654C6F636B57616C6C65743A2066756E647320616C7265616479207769 PUSH1 0x0 DUP3 ADD MSTORE PUSH32 0x7468647261776E00000000000000000000000000000000000000000000000000 PUSH1 0x20 DUP3 ADD MSTORE POP JUMP JUMPDEST PUSH1 0x0 PUSH2 0xF90 PUSH1 0x27 DUP4 PUSH2 0xC61 JUMP JUMPDEST SWAP2 POP PUSH2 0xF9B DUP3 PUSH2 0xF34 JUMP JUMPDEST PUSH1 0x40 DUP3 ADD SWAP1 POP SWAP2 SWAP1 POP JUMP JUMPDEST PUSH1 0x0 PUSH1 0x20 DUP3 ADD SWAP1 POP DUP2 DUP2 SUB PUSH1 0x0 DUP4 ADD MSTORE PUSH2 0xFBF DUP2 PUSH2 0xF83 JUMP JUMPDEST SWAP1 POP SWAP2 SWAP1 POP JUMP JUMPDEST PUSH32 0x54696D654C6F636B57616C6C65743A2063616C6C6572206973206E6F74207468 PUSH1 0x0 DUP3 ADD MSTORE PUSH32 0x6520726563697069656E74000000000000000000000000000000000000000000 PUSH1 0x20 DUP3 ADD MSTORE POP JUMP JUMPDEST PUSH1 0x0 PUSH2 0x1022 PUSH1 0x2B DUP4 PUSH2 0xC61 JUMP JUMPDEST SWAP2 POP PUSH2 0x102D DUP3 PUSH2 0xFC6 JUMP JUMPDEST PUSH1 0x40 DUP3 ADD SWAP1 POP SWAP2 SWAP1 POP JUMP JUMPDEST PUSH1 0x0 PUSH1 0x20 DUP3 ADD SWAP1 POP DUP2 DUP2 SUB PUSH1 0x0 DUP4 ADD MSTORE PUSH2 0x1051 DUP2 PUSH2 0x1015 JUMP JUMPDEST SWAP1 POP SWAP2 SWAP1 POP JUMP JUMPDEST PUSH32 0x54696D654C6F636B57616C6C65743A2072656C656173652074696D65206E6F74 PUSH1 0x0 DUP3 ADD MSTORE PUSH32 0x2072656163686564000000000000000000000000000000000000000000000000 PUSH1 0x20 DUP3 ADD MSTORE POP JUMP JUMPDEST PUSH1 0x0 PUSH2 0x10B4 PUSH1 0x28 DUP4 PUSH2 0xC61 JUMP JUMPDEST SWAP2 POP PUSH2 0x10BF DUP3 PUSH2 0x1058 JUMP JUMPDEST PUSH1 0x40 DUP3 ADD SWAP1 POP SWAP2 SWAP1 POP JUMP JUMPDEST PUSH1 0x0 PUSH1 0x20 DUP3 ADD SWAP1 POP DUP2 DUP2 SUB PUSH1 0x0 DUP4 ADD MSTORE PUSH2 0x10E3 DUP2 PUSH2 0x10A7 JUMP JUMPDEST SWAP1 POP SWAP2 SWAP1 POP JUMP JUMPDEST PUSH1 0x0 PUSH2 0x10F5 DUP3 PUSH2 0xAA7 JUMP JUMPDEST SWAP2 POP PUSH2 0x1100 DUP4 PUSH2 0xAA7 JUMP JUMPDEST SWAP3 POP DUP3 DUP3 MUL PUSH2 0x110E DUP2 PUSH2 0xAA7 JUMP JUMPDEST SWAP2 POP DUP3 DUP3 DIV DUP5 EQ DUP4 ISZERO OR PUSH2 0x1125 JUMPI PUSH2 0x1124 PUSH2 0xE28 JUMP JUMPDEST JUMPDEST POP SWAP3 SWAP2 POP POP JUMP JUMPDEST PUSH32 0x4E487B7100000000000000000000000000000000000000000000000000000000 PUSH1 0x0 MSTORE PUSH1 0x12 PUSH1 0x4 MSTORE PUSH1 0x24 PUSH1 0x0 REVERT JUMPDEST PUSH1 0x0 PUSH2 0x1166 DUP3 PUSH2 0xAA7 JUMP JUMPDEST SWAP2 POP PUSH2 0x1171 DUP4 PUSH2 0xAA7 JUMP JUMPDEST SWAP3 POP DUP3 PUSH2 0x1181 JUMPI PUSH2 0x1180 PUSH2 0x112C JUMP JUMPDEST JUMPDEST DUP3 DUP3 DIV SWAP1 POP SWAP3 SWAP2 POP POP JUMP JUMPDEST PUSH1 0x0 PUSH2 0x1197 DUP3 PUSH2 0xAA7 JUMP JUMPDEST SWAP2 POP PUSH2 0x11A2 DUP4 PUSH2 0xAA7 JUMP JUMPDEST SWAP3 POP DUP3 DUP3 SUB SWAP1 POP DUP2 DUP2 GT ISZERO PUSH2 0x11BA JUMPI PUSH2 0x11B9 PUSH2 0xE28 JUMP JUMPDEST JUMPDEST SWAP3 SWAP2 POP POP JUMP JUMPDEST PUSH1 0x0 DUP2 SWAP1 POP SWAP3 SWAP2 POP POP JUMP JUMPDEST POP JUMP JUMPDEST PUSH1 0x0 PUSH2 0x11DB PUSH1 0x0 DUP4 PUSH2 0x11C0 JUMP JUMPDEST SWAP2 POP PUSH2 0x11E6 DUP3 PUSH2 0x11CB JUMP JUMPDEST PUSH1 0x0 DUP3 ADD SWAP1 POP SWAP2 SWAP1 POP JUMP JUMPDEST PUSH1 0x0 PUSH2 0x11FC DUP3 PUSH2 0x11CE JUMP JUMPDEST SWAP2 POP DUP2 SWAP1 POP SWAP2 SWAP1 POP JUMP JUMPDEST PUSH32 0x54696D654C6F636B57616C6C65743A20666565207472616E7366657220666169 PUSH1 0x0 DUP3 ADD MSTORE PUSH32 0x6C65640000000000000000000000000000000000000000000000000000000000 PUSH1 0x20 DUP3 ADD MSTORE POP JUMP JUMPDEST PUSH1 0x0 PUSH2 0x1262 PUSH1 0x23 DUP4 PUSH2 0xC61 JUMP JUMPDEST SWAP2 POP PUSH2 0x126D DUP3 PUSH2 0x1206 JUMP JUMPDEST PUSH1 0x40 DUP3 ADD SWAP1 POP SWAP2 SWAP1 POP JUMP JUMPDEST PUSH1 0x0 PUSH1 0x20 DUP3 ADD SWAP1 POP DUP2 DUP2 SUB PUSH1 0x0 DUP4 ADD MSTORE PUSH2 0x1291 DUP2 PUSH2 0x1255 JUMP JUMPDEST SWAP1 POP SWAP2 SWAP1 POP JUMP JUMPDEST PUSH32 0x54696D654C6F636B57616C6C65743A207472616E73666572206661696C656400 PUSH1 0x0 DUP3 ADD MSTORE POP JUMP JUMPDEST PUSH1 0x0 PUSH2 0x12CE PUSH1 0x1F DUP4 PUSH2 0xC61 JUMP JUMPDEST SWAP2 POP PUSH2 0x12D9 DUP3 PUSH2 0x1298 JUMP JUMPDEST PUSH1 0x20 DUP3 ADD SWAP1 POP SWAP2 SWAP1 POP JUMP JUMPDEST PUSH1 0x0 PUSH1 0x20 DUP3 ADD SWAP1 POP DUP2 DUP2 SUB PUSH1 0x0 DUP4 ADD MSTORE PUSH2 0x12FD DUP2 PUSH2 0x12C1 JUMP JUMPDEST SWAP1 POP SWAP2 SWAP1 POP JUMP INVALID LOG2 PUSH5 0x6970667358 0x22 SLT KECCAK256 SWAP16 0x2E MLOAD 0xB6 0xD5 CALLDATASIZE SUB DUP5 0xCB COINBASE 0x29 SWAP13 ORIGIN 0xBC PUSH8 0xCB7667284FCD3298 SLT 0xBC PUSH8 0xF8043C6EFBFB6473 PUSH16 0x6C634300081400330000000000000000 "},"methodIdentifiers":{"BASIS_POINTS()":"e1f1c4a7","FEE_BASIS_POINTS()":"a525ad3c","FEE_COLLECTOR()":"7f660b01","calculateFee(uint256)":"99a5d747","getBalance()":"12065fe0","getLockDetails(uint256)":"5b15bfd9","getLocksCount()":"de3794c4","lockFunds(address,uint256)":"12e382b4","locks(uint256)":"f4dadc61","nextLockId()":"6518a0b3","withdraw(uint256)":"2e1a7d4d"}}}}}