{
  "_format": "hh-sol-artifact-1",
  "contractName": "TimeLockWallet",
  "sourceName": "contracts/TimeLockWallet.sol",
  "abi": [
    {
      "anonymous": false,
      "inputs": [
        {
          "indexed": true,
          "internalType": "uint256",
          "name": "lockId",
          "type": "uint256"
        },
        {
          "indexed": false,
          "internalType": "uint256",
          "name": "feeAmount",
          "type": "uint256"
        }
      ],
      "name": "FeeCollected",
      "type": "event"
    },
    {
      "anonymous": false,
      "inputs": [
        {
          "indexed": true,
          "internalType": "uint256",
          "name": "lockId",
          "type": "uint256"
        },
        {
          "indexed": true,
          "internalType": "address",
          "name": "sender",
          "type": "address"
        },
        {
          "indexed": true,
          "internalType": "address",
          "name": "recipient",
          "type": "address"
        },
        {
          "indexed": false,
          "internalType": "uint256",
          "name": "amount",
          "type": "uint256"
        },
        {
          "indexed": false,
          "internalType": "uint256",
          "name": "releaseTime",
          "type": "uint256"
        },
        {
          "indexed": false,
          "internalType": "bytes32",
          "name": "blockHash",
          "type": "bytes32"
        },
        {
          "indexed": false,
          "internalType": "uint256",
          "name": "blockNumber",
          "type": "uint256"
        },
        {
          "indexed": false,
          "internalType": "uint256",
          "name": "timestamp",
          "type": "uint256"
        }
      ],
      "name": "FundsLocked",
      "type": "event"
    },
    {
      "anonymous": false,
      "inputs": [
        {
          "indexed": true,
          "internalType": "uint256",
          "name": "lockId",
          "type": "uint256"
        },
        {
          "indexed": true,
          "internalType": "address",
          "name": "recipient",
          "type": "address"
        },
        {
          "indexed": false,
          "internalType": "uint256",
          "name": "amount",
          "type": "uint256"
        },
        {
          "indexed": false,
          "internalType": "uint256",
          "name": "fee",
          "type": "uint256"
        }
      ],
      "name": "FundsWithdrawn",
      "type": "event"
    },
    {
      "inputs": [],
      "name": "BASIS_POINTS",
      "outputs": [
        {
          "internalType": "uint256",
          "name": "",
          "type": "uint256"
        }
      ],
      "stateMutability": "view",
      "type": "function"
    },
    {
      "inputs": [],
      "name": "FEE_BASIS_POINTS",
      "outputs": [
        {
          "internalType": "uint256",
          "name": "",
          "type": "uint256"
        }
      ],
      "stateMutability": "view",
      "type": "function"
    },
    {
      "inputs": [],
      "name": "FEE_COLLECTOR",
      "outputs": [
        {
          "internalType": "address",
          "name": "",
          "type": "address"
        }
      ],
      "stateMutability": "view",
      "type": "function"
    },
    {
      "inputs": [
        {
          "internalType": "uint256",
          "name": "amount",
          "type": "uint256"
        }
      ],
      "name": "calculateFee",
      "outputs": [
        {
          "internalType": "uint256",
          "name": "",
          "type": "uint256"
        }
      ],
      "stateMutability": "pure",
      "type": "function"
    },
    {
      "inputs": [],
      "name": "getBalance",
      "outputs": [
        {
          "internalType": "uint256",
          "name": "",
          "type": "uint256"
        }
      ],
      "stateMutability": "view",
      "type": "function"
    },
    {
      "inputs": [
        {
          "internalType": "uint256",
          "name": "lockId",
          "type": "uint256"
        }
      ],
      "name": "getLockDetails",
      "outputs": [
        {
          "internalType": "uint256",
          "name": "amount",
          "type": "uint256"
        },
        {
          "internalType": "uint256",
          "name": "releaseTime",
          "type": "uint256"
        },
        {
          "internalType": "address",
          "name": "recipient",
          "type": "address"
        },
        {
          "internalType": "bool",
          "name": "withdrawn",
          "type": "bool"
        },
        {
          "internalType": "bytes32",
          "name": "blockHash",
          "type": "bytes32"
        },
        {
          "internalType": "uint256",
          "name": "blockNumber",
          "type": "uint256"
        },
        {
          "internalType": "uint256",
          "name": "timestamp",
          "type": "uint256"
        },
        {
          "internalType": "address",
          "name": "sender",
          "type": "address"
        }
      ],
      "stateMutability": "view",
      "type": "function"
    },
    {
      "inputs": [],
      "name": "getLocksCount",
      "outputs": [
        {
          "internalType": "uint256",
          "name": "",
          "type": "uint256"
        }
      ],
      "stateMutability": "view",
      "type": "function"
    },
    {
      "inputs": [
        {
          "internalType": "address",
          "name": "recipient",
          "type": "address"
        },
        {
          "internalType": "uint256",
          "name": "releaseTime",
          "type": "uint256"
        }
      ],
      "name": "lockFunds",
      "outputs": [
        {
          "internalType": "uint256",
          "name": "lockId",
          "type": "uint256"
        }
      ],
      "stateMutability": "payable",
      "type": "function"
    },
    {
      "inputs": [
        {
          "internalType": "uint256",
          "name": "",
          "type": "uint256"
        }
      ],
      "name": "locks",
      "outputs": [
        {
          "internalType": "uint256",
          "name": "amount",
          "type": "uint256"
        },
        {
          "internalType": "uint256",
          "name": "releaseTime",
          "type": "uint256"
        },
        {
          "internalType": "address",
          "name": "recipient",
          "type": "address"
        },
        {
          "internalType": "bool",
          "name": "withdrawn",
          "type": "bool"
        },
        {
          "internalType": "bytes32",
          "name": "blockHash",
          "type": "bytes32"
        },
        {
          "internalType": "uint256",
          "name": "blockNumber",
          "type": "uint256"
        },
        {
          "internalType": "uint256",
          "name": "timestamp",
          "type": "uint256"
        },
        {
          "internalType": "address",
          "name": "sender",
          "type": "address"
        }
      ],
      "stateMutability": "view",
      "type": "function"
    },
    {
      "inputs": [],
      "name": "nextLockId",
      "outputs": [
        {
          "internalType": "uint256",
          "name": "",
          "type": "uint256"
        }
      ],
      "stateMutability": "view",
      "type": "function"
    },
    {
      "inputs": [
        {
          "internalType": "uint256",
          "name": "lockId",
          "type": "uint256"
        }
      ],
      "name": "withdraw",
      "outputs": [],
      "stateMutability": "nonpayable",
      "type": "function"
    }
  ],
  "bytecode": "0x608060405234801561001057600080fd5b50611501806100206000396000f3fe60806040526004361061009c5760003560e01c80637f660b01116100645780637f660b011461019457806399a5d747146101bf578063a525ad3c146101fc578063de3794c414610227578063e1f1c4a714610252578063f4dadc611461027d5761009c565b806312065fe0146100a157806312e382b4146100cc5780632e1a7d4d146100fc5780635b15bfd9146101255780636518a0b314610169575b600080fd5b3480156100ad57600080fd5b506100b66102c1565b6040516100c39190610be2565b60405180910390f35b6100e660048036038101906100e19190610c8c565b6102c9565b6040516100f39190610be2565b60405180910390f35b34801561010857600080fd5b50610123600480360381019061011e9190610ccc565b6105ab565b005b34801561013157600080fd5b5061014c60048036038101906101479190610ccc565b6109e7565b604051610160989796959493929190610d3c565b60405180910390f35b34801561017557600080fd5b5061017e610ade565b60405161018b9190610be2565b60405180910390f35b3480156101a057600080fd5b506101a9610ae4565b6040516101b69190610dba565b60405180910390f35b3480156101cb57600080fd5b506101e660048036038101906101e19190610ccc565b610afc565b6040516101f39190610be2565b60405180910390f35b34801561020857600080fd5b50610211610b1f565b60405161021e9190610be2565b60405180910390f35b34801561023357600080fd5b5061023c610b24565b6040516102499190610be2565b60405180910390f35b34801561025e57600080fd5b50610267610b2e565b6040516102749190610be2565b60405180910390f35b34801561028957600080fd5b506102a4600480360381019061029f9190610ccc565b610b34565b6040516102b8989796959493929190610d3c565b60405180910390f35b600047905090565b60008073ffffffffffffffffffffffffffffffffffffffff168373ffffffffffffffffffffffffffffffffffffffff1603610339576040517f08c379a000000000000000000000000000000000000000000000000000000000815260040161033090610e58565b60405180910390fd5b6000341161037c576040517f08c379a000000000000000000000000000000000000000000000000000000000815260040161037390610eea565b60405180910390fd5b4282116103be576040517f08c379a00000000000000000000000000000000000000000000000000000000081526004016103b590610f7c565b60405180910390fd5b600160008154809291906103d190610fcb565b9190505590506040518061010001604052803481526020018381526020018473ffffffffffffffffffffffffffffffffffffffff168152602001600015158152602001434081526020014381526020014281526020013373ffffffffffffffffffffffffffffffffffffffff16815250600080838152602001908152602001600020600082015181600001556020820151816001015560408201518160020160006101000a81548173ffffffffffffffffffffffffffffffffffffffff021916908373ffffffffffffffffffffffffffffffffffffffff16021790555060608201518160020160146101000a81548160ff0219169083151502179055506080820151816003015560a0820151816004015560c0820151816005015560e08201518160060160006101000a81548173ffffffffffffffffffffffffffffffffffffffff021916908373ffffffffffffffffffffffffffffffffffffffff1602179055509050508273ffffffffffffffffffffffffffffffffffffffff163373ffffffffffffffffffffffffffffffffffffffff16827f1729ac8ad7899abdf9e72c1eca99a5b9c5a1f17d3219936fd1b3b38a287bd36934864340434260405161059d959493929190611013565b60405180910390a492915050565b8060015481106105f0576040517f08c379a00000000000000000000000000000000000000000000000000000000081526004016105e7906110b2565b60405180910390fd5b60008082815260200190815260200160002060020160149054906101000a900460ff1615610653576040517f08c379a000000000000000000000000000000000000000000000000000000000815260040161064a90611144565b60405180910390fd5b600080600084815260200190815260200160002090508060020160009054906101000a900473ffffffffffffffffffffffffffffffffffffffff1673ffffffffffffffffffffffffffffffffffffffff163373ffffffffffffffffffffffffffffffffffffffff16146106fb576040517f08c379a00000000000000000000000000000000000000000000000000000000081526004016106f2906111d6565b60405180910390fd5b8060010154421015610742576040517f08c379a000000000000000000000000000000000000000000000000000000000815260040161073990611268565b60405180910390fd5b60018160020160146101000a81548160ff021916908315150217905550600081600001549050600061271060648361077a9190611288565b61078491906112f9565b905060008183610794919061132a565b90506000821115610899576000730788acb08de2f55b7f2086d1f45478a926921e2973ffffffffffffffffffffffffffffffffffffffff16836040516107d99061138f565b60006040518083038185875af1925050503d8060008114610816576040519150601f19603f3d011682016040523d82523d6000602084013e61081b565b606091505b505090508061085f576040517f08c379a000000000000000000000000000000000000000000000000000000000815260040161085690611416565b60405180910390fd5b867faf7c505ee772ec188af7067e1f73db08ab028e3d564273442b907742b9c41fa08460405161088f9190610be2565b60405180910390a2505b60008460020160009054906101000a900473ffffffffffffffffffffffffffffffffffffffff1673ffffffffffffffffffffffffffffffffffffffff16826040516108e39061138f565b60006040518083038185875af1925050503d8060008114610920576040519150601f19603f3d011682016040523d82523d6000602084013e610925565b606091505b5050905080610969576040517f08c379a000000000000000000000000000000000000000000000000000000000815260040161096090611482565b60405180910390fd5b8460020160009054906101000a900473ffffffffffffffffffffffffffffffffffffffff1673ffffffffffffffffffffffffffffffffffffffff16877f3dbb1a26f29aef1264c12ca1285deb60cca5666d8b17100c7ea1602c0a4014f684866040516109d69291906114a2565b60405180910390a350505050505050565b6000806000806000806000806001548910610a37576040517f08c379a0000000000000000000000000000000000000000000000000000000008152600401610a2e906110b2565b60405180910390fd5b60008060008b81526020019081526020016000209050806000015481600101548260020160009054906101000a900473ffffffffffffffffffffffffffffffffffffffff168360020160149054906101000a900460ff168460030154856004015486600501548760060160009054906101000a900473ffffffffffffffffffffffffffffffffffffffff169850985098509850985098509850985050919395975091939597565b60015481565b730788acb08de2f55b7f2086d1f45478a926921e2981565b6000612710606483610b0e9190611288565b610b1891906112f9565b9050919050565b606481565b6000600154905090565b61271081565b60006020528060005260406000206000915090508060000154908060010154908060020160009054906101000a900473ffffffffffffffffffffffffffffffffffffffff16908060020160149054906101000a900460ff16908060030154908060040154908060050154908060060160009054906101000a900473ffffffffffffffffffffffffffffffffffffffff16905088565b6000819050919050565b610bdc81610bc9565b82525050565b6000602082019050610bf76000830184610bd3565b92915050565b600080fd5b600073ffffffffffffffffffffffffffffffffffffffff82169050919050565b6000610c2d82610c02565b9050919050565b610c3d81610c22565b8114610c4857600080fd5b50565b600081359050610c5a81610c34565b92915050565b610c6981610bc9565b8114610c7457600080fd5b50565b600081359050610c8681610c60565b92915050565b60008060408385031215610ca357610ca2610bfd565b5b6000610cb185828601610c4b565b9250506020610cc285828601610c77565b9150509250929050565b600060208284031215610ce257610ce1610bfd565b5b6000610cf084828501610c77565b91505092915050565b610d0281610c22565b82525050565b60008115159050919050565b610d1d81610d08565b82525050565b6000819050919050565b610d3681610d23565b82525050565b600061010082019050610d52600083018b610bd3565b610d5f602083018a610bd3565b610d6c6040830189610cf9565b610d796060830188610d14565b610d866080830187610d2d565b610d9360a0830186610bd3565b610da060c0830185610bd3565b610dad60e0830184610cf9565b9998505050505050505050565b6000602082019050610dcf6000830184610cf9565b92915050565b600082825260208201905092915050565b7f54696d654c6f636b57616c6c65743a20726563697069656e74206973207a657260008201527f6f20616464726573730000000000000000000000000000000000000000000000602082015250565b6000610e42602983610dd5565b9150610e4d82610de6565b604082019050919050565b60006020820190508181036000830152610e7181610e35565b9050919050565b7f54696d654c6f636b57616c6c65743a20616d6f756e74206d757374206265206760008201527f726561746572207468616e207a65726f00000000000000000000000000000000602082015250565b6000610ed4603083610dd5565b9150610edf82610e78565b604082019050919050565b60006020820190508181036000830152610f0381610ec7565b9050919050565b7f54696d654c6f636b57616c6c65743a2072656c656173652074696d65206d757360008201527f7420626520696e20667574757265000000000000000000000000000000000000602082015250565b6000610f66602e83610dd5565b9150610f7182610f0a565b604082019050919050565b60006020820190508181036000830152610f9581610f59565b9050919050565b7f4e487b7100000000000000000000000000000000000000000000000000000000600052601160045260246000fd5b6000610fd682610bc9565b91507fffffffffffffffffffffffffffffffffffffffffffffffffffffffffffffffff820361100857611007610f9c565b5b600182019050919050565b600060a0820190506110286000830188610bd3565b6110356020830187610bd3565b6110426040830186610d2d565b61104f6060830185610bd3565b61105c6080830184610bd3565b9695505050505050565b7f54696d654c6f636b57616c6c65743a20696e76616c6964206c6f636b20696400600082015250565b600061109c601f83610dd5565b91506110a782611066565b602082019050919050565b600060208201905081810360008301526110cb8161108f565b9050919050565b7f54696d654c6f636b57616c6c65743a2066756e647320616c726561647920776960008201527f7468647261776e00000000000000000000000000000000000000000000000000602082015250565b600061112e602783610dd5565b9150611139826110d2565b604082019050919050565b6000602082019050818103600083015261115d81611121565b9050919050565b7f54696d654c6f636b57616c6c65743a2063616c6c6572206973206e6f7420746860008201527f6520726563697069656e74000000000000000000000000000000000000000000602082015250565b60006111c0602b83610dd5565b91506111cb82611164565b604082019050919050565b600060208201905081810360008301526111ef816111b3565b9050919050565b7f54696d654c6f636b57616c6c65743a2072656c656173652074696d65206e6f7460008201527f2072656163686564000000000000000000000000000000000000000000000000602082015250565b6000611252602883610dd5565b915061125d826111f6565b604082019050919050565b6000602082019050818103600083015261128181611245565b9050919050565b600061129382610bc9565b915061129e83610bc9565b92508282026112ac81610bc9565b915082820484148315176112c3576112c2610f9c565b5b5092915050565b7f4e487b7100000000000000000000000000000000000000000000000000000000600052601260045260246000fd5b600061130482610bc9565b915061130f83610bc9565b92508261131f5761131e6112ca565b5b828204905092915050565b600061133582610bc9565b915061134083610bc9565b925082820390508181111561135857611357610f9c565b5b92915050565b600081905092915050565b50565b600061137960008361135e565b915061138482611369565b600082019050919050565b600061139a8261136c565b9150819050919050565b7f54696d654c6f636b57616c6c65743a20666565207472616e736665722066616960008201527f6c65640000000000000000000000000000000000000000000000000000000000602082015250565b6000611400602383610dd5565b915061140b826113a4565b604082019050919050565b6000602082019050818103600083015261142f816113f3565b9050919050565b7f54696d654c6f636b57616c6c65743a207472616e73666572206661696c656400600082015250565b600061146c601f83610dd5565b915061147782611436565b602082019050919050565b6000602082019050818103600083015261149b8161145f565b9050919050565b60006040820190506114b76000830185610bd3565b6114c46020830184610bd3565b939250505056fea26469706673582212204c8b537771c6c9136a5dc1211b5c310f803482c80a9b48ed6fc613a2a43d91aa64736f6c63430008140033",
  "linkReferences": {},
  "deployedLinkReferences": {}
}